:1000000010C02AC03EC028C027C026C025C024C0BA
:1000100023C022C021C08BC01FC01EC01DC01CC079
:100020001BC011241FBECFE5D2E0DEBFCDBF10E064
:10003000A0E6B0E0E6E9FEE002C005900D92A43D26
:10004000B107D9F710E0A4EDB0E001C01D92AC3FBC
:10005000B107E1F72ED01DC7D3CF80E182BB8BB7AC
:1000600080618BBF85B7877E806185BF85B78062E1
:1000700085BF85B7806285BF889585B78F7D85BF31
:1000800008951F920F920FB60F9211248F9385B788
:100090008F7D85BF8F910F900FBE0F901F90189589
:1000A00092D529D0CDD1AAD2F2D09DD037D2789492
:1000B000089584EF91E028EC30E0F9013197F1F7F1
:1000C0000197D9F7EDDFF5D08091D40082FF06C00B
:1000D000A1D039D28091D4008B7F0AC08091D40006
:1000E00083FFF1CFB7D18DD2C1D58091D400877F66
:1000F0008093D400E8CF10BE89E083BF8FEF86BF26
:1001000089B7816089BF1092F5001092F6001092B5
:10011000F7001092F8001092F90081E49CE09093AF
:10012000F3008093F2008CE08093D40008951F9236
:100130000F920FB60F9211242F933F938F939F939B
:100140002091F4003091D4008091F2009091F3005E
:1001500001979093F3008093F2008091F2009091C8
:10016000F300892B71F538602F5F2A3021F5346058
:100170008091F700882329F08091F70081508093C7
:10018000F7008091F5008F5F8093F5008091F50076
:100190008C3381F48091F800882329F08091F80055
:1001A00081508093F8008091F6008F5F8093F60075
:1001B0001092F50020E081E49CE09093F30080939E
:1001C000F2008091F9008F5F8093F9002093F40092
:1001D0003093D4009F918F913F912F910F900FBE3C
:1001E0000F901F90189587E886B913B817B8D09864
:1001F000D89881E081B9E0E6F0E08FEF93E0819359
:10020000919320E0E037F207D1F70895369A3699B6
:10021000FECF0895F89420E030E040E0369A369919
:10022000FECF84B195B1280F391F4F5F4830B1F729
:100230008091D5008F5F8093D5008150883011F474
:100240001092D500E091D500F0E0EE0FFF1FE05ACC
:10025000FF4F93E0369527959A95E1F731832083F8
:10026000E0E6F0E020E030E081919191280F391F25
:1002700080E0E037F807C1F783E0369527958A9547
:10028000E1F73093FB002093FA00789408958AB345
:100290008E608ABB87B3876087BB8BB38E608BBB56
:1002A00088B3876088BB4424662455247724882437
:1002B0000895DF92EF92FF920F931F93852D90E0A8
:1002C00063E070E089D5FC01E059FF4F0081E180D7
:1002D000D280872D90E063E070E07ED5FC01E0598C
:1002E000FF4FF080872D90E063E070E075D5FC0152
:1002F000E059FF4F1181872D90E063E070E06CD5ED
:10030000FC01E059FF4FB281F82D772009F4F0E0AD
:10031000E091F900E695ABB338B38091F40020E0AA
:10032000823008F021E0842D813019F461E070E022
:100330000CC0823019F060E070E007C080E090E00F
:10034000222311F081E090E0BC01862D813019F468
:1003500041E050E00CC0823019F040E050E007C0AE
:1003600080E090E0222311F081E090E0AC012A2FA0
:100370002E603760FF2331F08E2F90E087709070F1
:10038000892BB1F4662349F0E01708F42B7FEE15B2
:1003900008F4277FED1508F42D7F442349F0EF156D
:1003A00008F43E7FE11708F43D7FEB1708F43B7F2C
:1003B0002BBB38BB1F910F91FF90EF90DF900895FA
:1003C0004424662476DF08955524539408957724B1
:1003D000739408958AE0582E08959AE0792E08952E
:1003E00024E0522E089534E0732E089545E0542EF3
:1003F000089555E0752E089568E0562E089578E02A
:10040000772E0895E6E05E2E0895F6E07F2E08959B
:10041000A2E05A2E0895B2E07B2E089583E0582E74
:10042000089593E0792E089529E0522E089539E039
:10043000732E089547E0542E089557E0752E0895C1
:10044000D498DC9A8AE0809394001092D60010929F
:10045000D7000895DF93CF930F92CDB7DEB72091E9
:1004600094008091D60089839091D700CC9902C0E6
:10047000846001C08B7F89832B3079F02C3018F495
:100480002A3049F505C02C3069F02D3021F516C011
:10049000898182FF20C02BE00DC0898182FD11C0BF
:1004A00089E014C0898182FF07C09150A1F48EE0D9
:1004B00089832DE098E00FC08AE008C0898182FF1F
:1004C00003C0915031F007C089818B7F89832AE076
:1004D00002C02CE092E089818093D6009093D700EF
:1004E000209394000F90CF91DF91089581E090E0E8
:1004F000A9D4089580E090E0A5D490E08D3D09F462
:1005000091E0892F0895682F81E090E0B1D408959B
:100510004AD364D008954FD369D008951092D8007B
:1005200008954091FA005091FB00EEEDF0E020E0DC
:10053000808191814817590720F02F5F329628302B
:10054000B9F7822F08958091D8008823B9F040919F
:10055000FA005091FB00EEEDF0E020E08081918107
:100560004817590720F02F5F32962830B9F76624D4
:100570006394722E222311F482E0682E08958FE98D
:1005800092E09093DF008093DE008AEA92E09093FD
:10059000E1008093E00083EB92E09093E30080938E
:1005A000E20082EC92E09093E5008093E40087ED16
:1005B00092E09093E7008093E60088EF92E09093BA
:1005C000E9008093E8008FEF9FEF9093EB0080931A
:1005D000EA009093ED008093EC0008958EED90E09A
:1005E00063E070E040E150E03AD408958EED90E091
:1005F00063E070E040E150E015D408958AE0282ED1
:1006000008959F92AF92BF92CF92DF92EF92FF92A6
:100610000F931F93DF93CF930F92CDB7DEB7F22CDA
:10062000E090D9001091D6001983C090F700909007
:10063000F800D090DA00A090DB00B090DC0088E6F3
:10064000281609F4D4C0821538F19FE1291609F45F
:1006500088C0921568F0E4E12E1609F45FC0FEE14F
:100660002F1609F46AC08AE0281609F0BBC137C00A
:1006700092E3291609F48AC0921528F0E8E22E16B2
:1006800009F0B0C180C0F3E32F1609F493C084E6EB
:10069000281609F0A7C19CC098EC291609F452C18C
:1006A000921568F0E3E82E1609F40DC1FCE82F1648
:1006B00009F47AC182E8281609F094C100C19AECC5
:1006C000291609F45FC1291608F44AC1EEEF2E1667
:1006D00009F477C1FFEF2F1609F084C17CC10ADF4E
:1006E000882309F47FC1CC9908C0CC9BFECF45D3A9
:1006F00080E009DFA5E0CA2E6CC167D30CDF6FD2A2
:10070000F5DEE82E882321F4F2E0CF2E94E175C1C6
:1007100081E08093D800EE24E39458C044244394AD
:1007200089DE6624639489DECC2011F49EE101C049
:1007300094E1112309F0F3C060C181E08093D800F7
:1007400002DF442480E0DFDE4AD260D2112329F4A4
:10075000EE24E5E09E2E9FE150C1EE2475E0972E39
:10076000DEC0992011F498E201C09FE1898183FFE6
:1007700044C1812F867011F094E63FC18E2D612F08
:100780005BD1E82E23C01CDE68DCC9C0EE2009F472
:10079000C6C08E2DB8DE44244394EE2DF0E0EA5618
:1007A000FF4F50808091D900D3D119D266E0C62E78
:1007B00093E323C181E0C81611F48824839413FFC6
:1007C00019C18E2D612F38D1E82E882492E315C1EE
:1007D0001092D800882452E0452E0EDE42E0642EAE
:1007E0000EDE14D23AE0C32E98E6DD2406C18E0157
:1007F0000F5F1F4FCC2039F0898182FDF5C0DD20CD
:1008000009F4FAC0F1C0898183FF1AC09AE0D916B1
:1008100079F0D394E5E0DE1641F48091DD00882381
:1008200009F007C129E0D22E05C0F1E0DF1611F46E
:1008300092E0D92EF801808182FF02C082E0C82EAA
:10084000DD2001F1BDDDB2E04B2EA2E06A2E8D2D40
:100850008150843010F08B2D01C0AA24FBEFBF2EF5
:10086000BD0CF3E0FB1510F4B82E02C0AA24A3942B
:10087000ED2DF0E03197DF01A656BF4F5C90EB55B0
:10088000FF4F7080F801808182FDB4C0F9E0DF166F
:1008900011F498ECB2C08AE0D81609F4A7C0BB20C6
:1008A00009F4A0C091E0B91609F4A2C0E2E0BE16B6
:1008B00009F49EC0F3E0BF1609F09CC099C08B2DCF
:1008C00047D18DD13DC04424439466246394009164
:1008D000EE001091F000AA2071F4083F10F0ADDD99
:1008E00017C0053610F07FDD13C0002311F093DD33
:1008F0000FC06DDD0DC0183F10F09CDD09C015362E
:1009000010F06EDD05C0112311F082DD01C05CDD49
:10091000898183FF6FC0898181FF03C044D19EE13B
:100920006CC0AA2039F4087F085F0093EE008B2D7D
:10093000D3D006C0187F185F1093F0008B2DF3D032
:1009400093E85BC04424439469DD6624639469DDC5
:1009500083E0FED044D1E3E0EE2E7AE0C72E02C061
:10096000CC2011F099EC49C0898182FFD8CF28DDD5
:10097000A0DCEFD1442443945DDD662463945DDD07
:100980009AEC3BC013FF09C083E0E81619F4EE248B
:10099000E39401C0E3948E2DDBD0CC2059F5BAD17D
:1009A0009AEC66E9C62E29C0898183FF1FC0898120
:1009B00081FF1CC005DDCC9BFECF6CD0E0DDA8DD47
:1009C0001BC052E0452E18DD42E0642E30DDCC2005
:1009D00099F09EEF12C01AD132E0432EF5DC22E0EE
:1009E000622EF5DC9FEF09C098E607C09CE805C0C1
:1009F00092E803C09F2D01C09AE01092D600C092E9
:100A0000F7009092F800E092D900D092DA00A0921C
:100A1000DB00B092DC00292E0F90CF91DF911F9167
:100A20000F91FF90EF90DF90CF90BF90AF909F908D
:100A3000089596E0D92EFECEDF93CF930F92CDB7D7
:100A4000DEB76983843010F0E0E01FC0E82FEE0FBE
:100A5000EE0F898183FF03C0898180FFEF5FF0E0A3
:100A6000EB54FF4FE081E13081F48091C70088238F
:100A700061F48091DD00882321F08091C9008823F2
:100A800021F481E06981D8DFE82F8E2F0F90CF917C
:100A9000DF91089582E08093C5008093C60090E5C1
:100AA0009093C70082ED8093C8009093C900809313
:100AB000CA0098E79093CB008093CC009093CD0030
:100AC0008093CE009FEF9093CF008093D0009093BF
:100AD000D1008093D20008950F931F930091FA00E4
:100AE0001091FB001695079516950795282F30E075
:100AF000C9016EEF7FEF70D1FC01E095F095A5EC98
:100B0000B0E0EE0FFF1FEA0FFB1F8091EE00808325
:100B1000220F331F220F331FA20FB31F11970C9305
:100B20001F910F9108952091FA003091FB003695A6
:100B3000279536952795E82FF0E0EE0FFF1FEE0F73
:100B4000FF1FEB53FF4F8091F000808321830895B6
:100B5000853040F5882329F41092EE001092F000C1
:100B60000895A82FB0E0CD016EEF7FEF35D1FC01E5
:100B7000E095F095EE0FFF1FEB53FF4F80818093C0
:100B8000EE00AA0FBB1FAA0FBB1FAB53BF4F8E9126
:100B900011968093EF008C918093F00011968C91C8
:100BA0008093F100089585EC90E063E170E04EE001
:100BB00050E055D1089585EC90E063E170E04EE09F
:100BC00050E030D108958AB380668ABB1BBC1ABC42
:100BD00019BC18BC1092EE001092F00008952091FC
:100BE000C6008091C500843011F090E801C090ECFF
:100BF0008091DD00882329F0243011F4906301C036
:100C0000906291609FBD83E08EBD08951092EE00CA
:100C10001092F0001ABC18BC0895FC01808168177E
:100C200020F08F3110F4682F6F5F60830895482F94
:100C30002091FA003091FB0036952795369527953F
:100C4000222391F0442381F0862F90E0642F70E0FE
:100C5000C3D00196622F70E0D1D0CB016F3F7105F8
:100C600021F018F08FEF089580E00895FF920F9320
:100C70001F93F8948091EE001091F0006091EF00C6
:100C8000F090F1009091C5000091C600882311F406
:100C90001ABC15C0992391F0943081F0933011F46F
:100CA000C6DF0CC0913019F0923049F4C0DF9AB51C
:100CB000891720F09F3110F4892F8F5F8ABD11238F
:100CC00011F418BC22C0002389F0043079F00330FD
:100CD00021F4812F6F2DABDF17C0013049F488B5A7
:100CE000181720F08F3110F4182F1F5F18BD0DC09A
:100CF000023059F4812F6F2D9ADF98B5891720F0B3
:100D00009F3110F4892F8F5F88BD78941F910F91C8
:100D1000FF9008951F93CF93DF931FB7F894C9EF07
:100D2000D0E0CE0197D0BC01CE010296AFD0229781
:100D300080E0CF31D807A9F76091FA007091FB00ED
:100D4000CE010296A3D01FBF7894DF91CF911F915F
:100D50000895CF93DF938DEF90E068EE89D0C1E2E4
:100D6000D0E0CE016FEF7FEF91D0229680E0CD3FB3
:100D7000D807B9F7DF91CF9108958DEF90E060E04B
:100D800077D00895FF920F931F93CF93DF93FFB611
:100D9000F894C9E3D0E00EED10E0CE015BD0F8018D
:100DA000819391938F016896F0E0C93FDF07A9F71F
:100DB00015DC8DEF90E060E05BD0FFBE7894DF91B2
:100DC000CF911F910F91FF9008958DEF90E03AD051
:100DD000883E09F4D7DF08955527002480FF02C01C
:100DE000060E571F660F771F6115710521F0969546
:100DF0008795009799F7952F802D0895AA1BBB1B07
:100E000051E107C0AA1FBB1FA617B70710F0A61B0A
:100E1000B70B881F991F5A95A9F780959095BC012B
:100E2000CD010895DC01CB01FC01E199FECF06C0A4
:100E3000FFBBEEBBE09A31960DB20D92415050408F
:100E4000B8F70895E199FECF9FBB8EBBE09A992732
:100E50008DB30895A8E1B0E042E050E0E5CFDC01B9
:100E6000CB0102C02D9105D041505040D8F70895D4
:100E7000262FE199FECF1CBA9FBB8EBB2DBB0FB6B0
:100E8000F894E29AE19A0FBE01960895F1DF272FB8
:060E9000F0CFF894FFCF43
:100E9600FFFFFFFFFFFFFFFFFFFFFFFFFFFFFFFF5C
:100EA6008000008000006464008080140080000AD6
:100EB600800A1E2880808080000080800A148014AA
:100EC600140000000A0A0B090506010905060B0BAA
:100ED6000B0B0704020B0B0B0B010905060704029B
:100EE60001040708020100010002000200030103D9
:100EF6000002010200020250D250D278D278D2FF0C
:040F0600D2FFD20044
:00000001FF
