:1000000010C02AC05CC328C027C026C025C024C099
:1000100023C022C021C07FCC1FC01EC01DC01CC079
:100020001BC011241FBECFE5D2E0DEBFCDBF10E064
:10003000A0E6B0E0E4EDFCE102C005900D92A43D25
:10004000B107D9F710E0A4EDB0E001C01D92AC3FBC
:10005000B107E1F768D33CCED3CFDF93CF93CDB7D1
:10006000DEB71092D400CF91DF910895DF93CF9344
:10007000CDB7DEB78EED90E020E030E0B90140E191
:1000800050E0EFDDCF91DF910895DF93CF93CDB7AF
:10009000DEB78EED90E020E030E0B90140E150E0C5
:1000A000FDDDCF91DF910895DF93CF9300D00F92C4
:1000B000CDB7DEB78091EE009091EF009B838A83ED
:1000C000198214C08981882F90E0880F991F82526D
:1000D0009F4FFC01208131818A819B818217930788
:1000E00010F4898107C089818F5F89838981883075
:1000F00048F388E00F900F900F90CF91DF91089513
:10010000DF93CF930F92CDB7DEB78091D4008823D1
:1001100061F0CADF8983662463947980872D882300
:1001200029F46624689461F801C000000F90CF9113
:10013000DF910895DF93CF93CDB7DEB78FE992E0DB
:100140009093DF008093DE008AEA92E09093E100D2
:100150008093E00083EB92E09093E3008093E200D1
:1001600082EC92E09093E5008093E40087ED92E0CA
:100170009093E7008093E60088EF92E09093E90087
:100180008093E8008FEF9FEF9093EB008093EA005D
:100190008FEF9FEF9093ED008093EC00CF91DF9174
:1001A0000895DF93CF930F92CDB7DEB786E290E04C
:1001B00027E8FC01208383E290E0FC01108287E2C3
:1001C00090E0FC0110828AE390E02AE330E0F9013C
:1001D00020812E7FFC0120838BE390E02BE330E035
:1001E000F90120812E7FFC01208381E290E021E053
:1001F000FC01208319820FC08981882F90E0880F2D
:10020000991F805A9F4F2FEF33E0FC0131832083E9
:1002100089818F5F89838981883070F30F90CF91B6
:10022000DF910895DF93CF93CDB7DEB786E290E0FC
:1002300026E230E0F90120812064FC01208386E27F
:1002400090E0FC018081882F90E08074907000978E
:10025000B1F7CF91DF910895DF93CF9300D000D015
:100260000F92CDB7DEB7F8941B821A8219820FC0A5
:10027000D9DF84E290E0FC01808191812A813B8179
:10028000820F931F9B838A8389818F5F89838981F2
:10029000883070F38A819B8196958795969587958E
:1002A000969587959D838C839091D50081E09830B9
:1002B00009F080E09F5F9093D500882311F01092A1
:1002C000D5008091D500882F90E0880F991F805A23
:1002D0009F4F2C813D81FC01318320831B821A8238
:1002E000198213C08981882F90E0880F991F805A46
:1002F0009F4FFC01808191812A813B81820F931F56
:100300009B838A8389818F5F89838981883050F3B9
:100310008A819B81969587959695879596958795E1
:100320009093EF008093EE0078940F900F900F90D1
:100330000F900F90CF91DF910895DF93CF93CDB7BA
:10034000DEB78AE390E02AE330E0F90120812F7ED6
:10035000FC0120838BE390E02BE330E0F901208166
:100360002061FC0120838AE0809370001092D60007
:100370001092D700CF91DF910895DF93CF9300D0F3
:100380000F92CDB7DEB78091700089838091D6003F
:100390008B838091D7008A8389E390E0FC01808180
:1003A000882F90E080719070009721F48B81846099
:1003B0008B8303C08B818B7F8B8380917000882F10
:1003C00090E08B309105F9F08C30910524F48A305F
:1003D000910549F071C08C30910581F18D30910506
:1003E00009F448C069C0CE010396FC018081882FC2
:1003F00090E084709070009709F457C088E08A8379
:100400008BE0898359C0CE010396FC018081882F3F
:1004100090E084709070009761F08A8181508A83A7
:100420008A81882309F043C082E08A838CE0898333
:1004300043C089E08B838AE089833EC0CE01039666
:10044000FC018081882F90E084709070009769F0A3
:100450008A8181508A838A81882359F58EE08B8333
:1004600088E08A838DE0898327C08AE08B838AE0D5
:10047000898322C0CE010396FC018081882F90E001
:1004800084709070009759F08A8181508A838A81A4
:10049000882389F482E08A838CE089830DC08B8174
:1004A0008B7F8B838AE0898307C0000005C0000032
:1004B00003C0000001C000008B818093D6008A81B8
:1004C0008093D7008981809370000F900F900F90D8
:1004D000CF91DF910895DF93CF93CDB7DEB78CEE48
:1004E00090E060E0E4DBCF91DF910895DF93CF935C
:1004F0000F92CDB7DEB78CEE90E0C3DB89838981A4
:10050000883E09F466D00F90CF91DF910895DF9374
:10051000CF9300D0CDB7DEB788EE8A838CEE90E023
:100520006A81C5DB19820DC08981882F90E0880F10
:10053000991F805F9F4F6FEF7FEFC7DB89818F5FD0
:10054000898389818E3680F30F900F90CF91DF9150
:100550000895DF93CF9300D000D0CDB7DEB78FE5FD
:1005600090E0FC0180818A83F8948DE6898319C02C
:100570008981882F90E00197880F991F805F9F4F96
:1005800088DB9C838B838981882F90E0880F991F5B
:10059000805F9F4F2B813C81B90197DB898181501E
:1005A00089838981882321F72091EE003091EF0023
:1005B00080E190E0B90189DB8FE590E02A81FC01C0
:1005C000208378940F900F900F900F90CF91DF9130
:1005D00008950F931F93DF93CF9300D0CDB7DEB76D
:1005E0008FE590E0FC0180818A83F89419821AC01B
:1005F0008981082F10E08981882F90E0019628E1F9
:1006000030E0B90108DB805F9F4F43DB9C01C801EC
:10061000880F991F82529F4FFC013183208389816B
:100620008F5F89838981883018F32FDD54DF8FE550
:1006300090E02A81FC01208378940F900F90CF9155
:10064000DF911F910F910895DF93CF93CDB7DEB760
:1006500082E390E020E1FC0120838BE590E02BE534
:1006600030E0F90120812061FC01208385E590E0E4
:1006700025E530E0F9012081277E2061FC012083FF
:1006800085E590E025E530E0F90120812062FC015C
:10069000208385E590E025E530E0F90120812062A6
:1006A000FC012083889585E590E025E530E0F9019F
:1006B00020812F7DFC012083CF91DF9108951F922F
:1006C0000F920FB60F9211242F933F938F939F9306
:1006D000EF93FF93DF93CF93CDB7DEB785E590E03F
:1006E00025E530E0F90120812F7DFC012083CF91A9
:1006F000DF91FF91EF919F918F913F912F910F90FB
:100700000FBE0F901F901895DF93CF93CDB7DEB734
:10071000EFD0D0D812DE4CD554D343DD9EDC789494
:10072000CF91DF9108950F931F93DF93CF93CDB7B0
:10073000DEB72E970FB6F894DEBF0FBECDBF80E0B8
:1007400090E0A8E4B2E489839A83AB83BC83698197
:100750007A818B819C8120E030E04AEF54E4C8D953
:10076000DC01CB018D839E83AF83B88711E06D815F
:100770007E818F81988520E030E040E85FE337D9C3
:1007800088230CF010E0112329F081E090E09A8793
:10079000898742C011E06D817E818F81988520E03C
:1007A0003FEF4FE757E4A0D918160CF010E01123E3
:1007B00051F169817A818B819C8120E030E040E2B7
:1007C00051E496D9DC01CB01BC01CD0114D9DC0187
:1007D000CB019A87898712C088EC90E09C878B8731
:1007E0008B859C858C01C8010197F1F78C011C87D2
:1007F0000B8789859A8501979A87898789859A8544
:10080000009751F716C06D817E818F819885F3D84E
:10081000DC01CB019A87898789859A859E878D8798
:100820008D859E858C01C8010197F1F78C011E878B
:100830000D876ADF01C00000F4D28091DD00882FAF
:1008400090E084709070009749F006DD59DC80914B
:10085000DD008B7F8093DD000000EECF8091DD0016
:10086000882F90E088709070009729F386DDABD4D4
:10087000D3D08091DD00877F8093DD00DDCFDF93D3
:10088000CF93CDB7DEB78DEE90E0FBD9982F81E006
:100890009D3D09F080E0CF91DF910895DF93CF93E4
:1008A000CDB7DEB793D1E2DBCF91DF910895DF932F
:1008B000CF93CDB7DEB799D1E8DBCF91DF91089523
:1008C000DF93CF930F92CDB7DEB789838EEE90E0A2
:1008D0006981EDD90F90CF91DF910895DF93CF9388
:1008E000CDB7DEB78EEE90E0CCD9CF91DF910895F1
:1008F000DF93CF93CDB7DEB78AE390E02AE330E011
:10090000F90120812066FC0120838AE490E0FC014B
:100910001182108288E490E0FC0111821082109212
:10092000F0001092F200CF91DF910895DF93CF9302
:1009300000D00F92CDB7DEB719829091710081E09F
:10094000943009F080E08A839091720081E09430C5
:1009500009F080E08B838A81882319F080EC8983F9
:1009600002C080E889838091D800882351F08B8170
:10097000882321F089818063898303C08981806213
:1009800089838FE490E029812160FC0120838EE43B
:1009900090E023E0FC0120830F900F900F90CF9107
:1009A000DF910895DF93CF93CDB7DEB71092F000BB
:1009B0001092F2008AE490E0FC01108288E490E05A
:1009C000FC011082CF91DF910895DF93CF9300D087
:1009D00000D0CDB7DEB79B838A836C838A819B81ED
:1009E000FC018081898399818C81891718F0898124
:1009F0008F3118F08C81898303C089818F5F89834F
:100A00008A819B812981FC0120830F900F900F9098
:100A10000F90CF91DF9108950F931F93DF93CF93A2
:100A200000D000D000D0CDB7DEB7F8948091F000B0
:100A300089838091F2008A838091F1008B83809179
:100A4000F3008C83809171008D83809172008E837E
:100A50008981882329F48AE490E0FC01108230C067
:100A60008D81882331F48AE490E02981FC01208380
:100A700027C08D81843031F48AE490E02981FC0123
:100A800020831EC08D81833041F40AE410E0898107
:100A90006B815AD0F801808313C08D81813029F495
:100AA0008AE490E0698191DF0BC08D81823041F44E
:100AB00089816B8149D0282F8AE490E0622F85DFFD
:100AC0008A81882329F488E490E0FC01108230C0F8
:100AD0008E81882331F488E490E02A81FC01208310
:100AE00027C08E81843031F488E490E02A81FC01B3
:100AF00020831EC08E81833041F408E410E08A8197
:100B00006C8122D0F801808313C08E81813029F45A
:100B100088E490E06A8159DF0BC08E81823041F415
:100B20008A816C8111D0282F88E490E0622F4DDFFC
:100B3000789426960FB6F894DEBF0FBECDBFCF9146
:100B4000DF911F910F910895DF93CF9300D000D0D4
:100B50000F92CDB7DEB78C836D838091EE009091BC
:100B6000EF00969587959695879589838981882347
:100B700011F480E023C08C81882311F480E01EC032
:100B80008D81882F90E02C81222F30E0B90143D84D
:100B90009B838A838A819B8101962981222F30E061
:100BA000B9014BD89B013B832A838A819B818F3F6C
:100BB000910519F010F08FEF01C08A810F900F900E
:100BC0000F900F900F90CF91DF910895DF93CF9307
:100BD000CDB7DEB781E790E020EF30E0B9014EE01D
:100BE00050E03FD8CF91DF910895DF93CF93CDB7F9
:100BF000DEB781E790E020EF30E0B9014EE050E051
:100C00004DD8CF91DF910895DF93CF93CDB7DEB765
:100C100082E08093710082E08093720080E580938F
:100C2000730082ED8093740080E58093750082EDFF
:100C30008093760088E78093770082ED8093780038
:100C400088E78093790082ED80937A008FEF80931C
:100C50007B0082ED80937C008FEF80937D0082ED9E
:100C600080937E00CF91DF910895DF93CF9300D0E2
:100C7000CDB7DEB78A838091EE009091EF00969514
:100C800087959695879589838A81882F90E0880F2C
:100C9000991F880F991F02972091F0008F589F4F3E
:100CA000FC0120838A81882F90E0880F991F880F8C
:100CB000991F01978F589F4F2981FC0120830F9026
:100CC0000F90CF91DF910895DF93CF9300D0CDB7F0
:100CD000DEB78A838091EE009091EF00969587951C
:100CE0009695879589838A81882F90E0880F991F30
:100CF000880F991F2091F2008F589F4FFC0120838D
:100D00008A81882F90E0880F991F880F991F01967C
:100D10008F589F4F2981FC0120830F900F90CF9116
:100D2000DF910895DF93CF930F92CDB7DEB789831C
:100D30008981853008F040C08981882329F4109288
:100D4000F0001092F20039C08981882F90E0880F5E
:100D5000991F880F991F02978F589F4FFC01808120
:100D60008093F0008981882F90E0880F991F880F69
:100D7000991F01978F589F4FFC0180818093F1004C
:100D80008981882F90E0880F991F880F991F8F58AD
:100D90009F4FFC0180818093F2008981882F90E031
:100DA000880F991F880F991F01968F589F4FFC013C
:100DB00080818093F30001C000000F90CF91DF91FC
:100DC0000895DF93CF93CDB7DEB78AE390E02AE3AF
:100DD00030E0F90120812E60FC01208387E390E060
:100DE00027E330E0F90120812760FC0120838BE3B9
:100DF00090E02BE330E0F90120812E60FC0120839C
:100E000088E390E028E330E0F90120812760FC01CD
:100E1000208344246624552477248824CF91DF91AD
:100E20000895DF93CF93CDB7DEB72D970FB6F89423
:100E3000DEBF0FBECDBF852D282F30E0C901880F42
:100E4000991F820F931F81589F4FFC0180818C83D3
:100E5000852D282F30E0C901880F991F820F931F1D
:100E600080589F4FFC0180818D83852D282F30E095
:100E7000C901880F991F820F931F8F579F4FFC0145
:100E800080818E83872D282F30E0C901880F991F1C
:100E9000820F931F81589F4FFC0180818F83872D84
:100EA000282F30E0C901880F991F820F931F8058A7
:100EB0009F4FFC0180818887872D282F30E0C90152
:100EC000880F991F820F931F8F579F4FFC018081BE
:100ED00089878982872D882309F419828091FB00F4
:100EE00086958A878BE390E0FC0180818A8388E382
:100EF00090E0FC0180818B839091F60081E092303C
:100F000008F480E08B87842D813031F0842D82308D
:100F100031F48B85882319F081E090E002C080E0F5
:100F200090E08C87862D813031F0862D823031F42F
:100F30008B85882319F081E090E002C080E090E08A
:100F40008D878A818E608A838B8187608B8389817C
:100F5000882379F08A858770882359F08BE390E0A5
:100F60002A81FC01208388E390E02B81FC0120830F
:100F70003AC08C858823A9F09A858C81981718F43B
:100F80008A818B7F8A839A858D81981718F48A814C
:100F9000877F8A839A858E81981718F48A818D7F3E
:100FA0008A838D858823A9F09A858F81981718F4F4
:100FB0008B818E7F8B839A858885981718F48B8117
:100FC0008D7F8B839A858985981718F48B818B7F09
:100FD0008B838BE390E02A81FC01208388E390E0FF
:100FE0002B81FC0120832D960FB6F894DEBF0FBE37
:100FF000CDBFCF91DF910895DF93CF93CDB7DEB70B
:10100000442466240EDFCF91DF910895DF93CF93C0
:10101000CDB7DEB755245394CF91DF910895DF9378
:10102000CF93CDB7DEB777247394CF91DF91089536
:10103000DF93CF93CDB7DEB70F2EFAE05F2EF02D02
:10104000CF91DF910895DF93CF93CDB7DEB70F2E09
:10105000FAE07F2EF02DCF91DF910895DF93CF93AB
:10106000CDB7DEB75524689452F8CF91DF9108953B
:10107000DF93CF93CDB7DEB77724689472F8CF9122
:10108000DF910895DF93CF93CDB7DEB70F2EF5E054
:101090005F2EF02DCF91DF910895DF93CF93CDB7E1
:1010A000DEB70F2EF5E07F2EF02DCF91DF91089562
:1010B000DF93CF93CDB7DEB75524689453F8CF9123
:1010C000DF910895DF93CF93CDB7DEB7772468948F
:1010D00073F8CF91DF910895DF93CF93CDB7DEB74B
:1010E0000F2EF6E05F2EF02DCF91DF910895DF9364
:1010F000CF93CDB7DEB70F2EF6E07F2EF02DCF9138
:10110000DF910895DF93CF93CDB7DEB75524689470
:1011100051F8CF91DF910895DF93CF93CDB7DEB72C
:101120007724689471F8CF91DF910895DF93CF937E
:10113000CDB7DEB70F2EF3E05F2EF02DCF91DF910C
:101140000895DF93CF93CDB7DEB70F2EF3E07F2E58
:10115000F02DCF91DF910895DF93CF93CDB7DEB718
:101160000F2EF9E05F2EF02DCF91DF910895DF93E0
:10117000CF93CDB7DEB70F2EF9E07F2EF02DCF91B4
:10118000DF910895DF93CF93CDB7DEB70F2EF7E051
:101190005F2EF02DCF91DF910895DF93CF93CDB7E0
:1011A000DEB70F2EF7E07F2EF02DCF91DF9108955F
:1011B000DF93CF93CDB7DEB70F2EFAE02F2EF02DB1
:1011C000CF91DF910895DF93CF93CDB7DEB72B9703
:1011D0000FB6F894DEBF0FBECDBF28868091D90030
:1011E00089838091D6008B878091F9008A838091D2
:1011F000FA008B8388858C838091DA008D838091BF
:10120000DB008E838091DC008F838091F0008987E2
:101210008091F2008A878885882F90E08836910532
:1012200009F417C18936910544F58F31910509F408
:10123000A5C08032910564F48431910509F479C028
:101240008E31910509F487C08A309105D9F19FC28A
:101250008233910509F4B9C0833391052CF48832A7
:10126000910509F4ADC093C28333910509F4C9C057
:101270008436910509F4DBC08AC2883C910509F4E3
:10128000FDC1893C91056CF48338910509F494C142
:101290008C38910509F43CC28238910509F486C165
:1012A00076C28A3C910509F416C28A3C91050CF479
:1012B000F5C18E3F910509F452C28F3F910509F4A3
:1012C0005CC265C2DCDA882319F48FEF8C837DC29F
:1012D00089E390E0FC018081882F90E0807190701C
:1012E000009791F489E390E0FC018081882F90E0E1
:1012F000807190700097B1F3EED880E0E1DA85E07C
:101300008A838EEF8C8361C2F1D8C8DA0FDBE6DA0C
:1013100089838981882341F081E0898381E08093FA
:10132000D40082E38C8351C282E08A8384E18C837F
:101330004CC24424439426DF662463942EDF8A81C2
:10134000882311F48EE18C838B85882309F422C2D3
:101350008EE18C833AC281E08093D400D1D64424BC
:10136000198280E0ADDAE2DA1DDB85E08B838B85C4
:10137000882309F011C28FE18C8327C28B818823D7
:1013800011F488E28C83CE010B96FC018081882FBA
:1013900090E088709070009709F400C28B85882FC8
:1013A00090E086709070009719F084E68C830DC2EF
:1013B0009B858981692F27D2898382E38C8305C22B
:1013C0001BDE42D98EE18C8300C28091D900882334
:1013D00019F48EE18C83F9C1898172DA4424439433
:1013E0008981882F90E08C559F4FFC018081582E79
:1013F0008091D90097DC9ADA83E38C8386E08A8334
:10140000E4C18A81813011F4882483948B85882FEC
:1014100090E088709070009709F4C2C19B85898123
:10142000692FF1D18983882482E38C83CEC1109205
:10143000D40088244424689441F83ADE66246894F1
:1014400061F840DEAFDA1D828AE08A8388E68C8309
:10145000BCC18A81882391F0CE010B96FC0180816A
:10146000882F90E084709070009709F09BC18D8167
:10147000882309F099C18AE08C83A7C1CE010B961D
:10148000FC018081882F90E088709070009769F14E
:1014900081E09D819A3009F080E09D819F5F9D836E
:1014A000882311F081E08D838D81853031F4809126
:1014B000D800882311F489E08D838D81813019F45F
:1014C0008D818F5F8D838D81853019F48D818F5F44
:1014D0008D83CE010B96FC018081882F90E0847073
:1014E0009070009711F082E08A838D81882371F1DA
:1014F00083DD4424689441F86624689461F88D8102
:10150000882339F08D81853020F48D8181508F833F
:101510001E828D81853040F08D81893028F48D8147
:1015200085508F8381E08E838D81882F90E0019795
:1015300088559F4FFC018081582E8D81882F90E027
:1015400001978D549F4FFC018081782ECE010B9620
:10155000FC018081882F90E084709070009709F0E2
:1015600025C18D81893019F488EC8C832EC18D8141
:101570008A3019F48CE88C8328C18F81882319F470
:101580008FEF8C8322C18F81813019F482E88C83A4
:101590001CC18F81823019F482E88C8316C18F813F
:1015A000833009F005C182E88C830FC18F81BADBDB
:1015B000BDD983E88C8309C1442443946624639491
:1015C0008091F00089878091F2008A878E8188233C
:1015D00089F48985883F10F0E0DD1CC08985853657
:1015E00010F046DD17C08985882311F095DD12C003
:1015F00016DD10C08A85883F10F0C4DD0BC08A85D7
:10160000853610F02BDD06C08A85882311F07ADD3F
:1016100001C0FCDCCE010B96FC018081882F90E09C
:1016200088709070009709F4C5C0CE010B96FC013C
:101630008081882F90E082709070009721F0D5DA39
:101640008EE18C83C2C08E81882361F48985887F76
:1016500089878985885F898789858093F0008F8154
:1016600004DBB3C08A85887F8A878A85885F8A87FA
:101670008A858093F2008F8127DBA7C0442443949E
:1016800055DD662463945DDD83E0898389814ADBCF
:101690004DD98AE08A8389EC8C8397C08A8188231C
:1016A00009F08AC0CE010B96FC018081882F90E062
:1016B00084709070009719F48EE18C8386C09CDC56
:1016C000B0DB25D7442443945DDD6624639465DD57
:1016D0008AEC8C837AC08B85882F90E0887090701C
:1016E000009771F081E09981933009F080E0998151
:1016F0009F5F9983882311F081E08983898112DBC0
:101700008A81882309F05AC024D786E98A835DC07C
:10171000CE010B96FC018081882F90E0887090703C
:10172000009709F44DC0CE010B96FC018081882FF3
:1017300090E082709070009709F444C05DDC89E30A
:1017400090E0FC018081882F90E08071907000977C
:10175000B1F35ADAEFD4ABD88AE08C8336C0442494
:10176000689441F8A5DC6624689461F800DD8A81FC
:10177000882351F58AE08C8328C014D944246894C6
:1017800041F844DC6624689461F849DC1EC08FEFA0
:101790008C831BC0000019C0000017C0000015C0DA
:1017A000000013C0000011C000000FC000000DC0F9
:1017B00000000BC0000009C0000007C0000005C009
:1017C000000003C0000001C000001092D6008A8112
:1017D0008093F9008B818093FA0089818093D900EE
:1017E0008D818093DA008E818093DB008F818093DE
:1017F000DC002C802B960FB6F894DEBF0FBECDBF59
:10180000CF91DF910895DF93CF9300D000D0CDB773
:10181000DEB78B836C838B81880F880F89838B81E4
:101820008A838B81843010F080E03DC0CE01049625
:10183000FC018081882F90E088709070009779F08B
:10184000CE010496FC018081882F90E08170907019
:10185000882321F489818F5F898301C000008981F9
:10186000882F90E08D539F4FFC0180818A838A816D
:101870008130C1F4809173008823A1F48091D80055
:1018800091E0882309F090E02091750081E0222307
:1018900009F080E0892B882329F09C818A81692FB7
:1018A000B2DF8A838A810F900F900F900F90CF91B3
:1018B000DF910895DF93CF93CDB7DEB780E590E059
:1018C000FC01108283E590E029E0FC01208386E59D
:1018D00090E02FEFFC01208389E590E029E530E0DE
:1018E000F90120812160FC0120831092F700109201
:1018F000F8001092F9001092FA001092FB0081E4B7
:101900009CE09093F5008093F4008CE08093DD00E0
:10191000CF91DF9108951F920F920FB60F9211246D
:101920008F939F93DF93CF9300D0CDB7DEB7809195
:10193000F60089838091DD008A838091F400909184
:10194000F50001979093F5008093F4008091F400E6
:101950009091F5000097A9F58A8188608A83898132
:101960008F5F898389818A3031F58A8184608A8397
:101970008091F900882329F08091F90081508093AB
:10198000F9008091F7008F5F8093F7008091F70056
:101990008C3381F48091FA00882329F08091FA0039
:1019A00081508093FA008091F8008F5F8093F80057
:1019B0001092F700198281E49CE09093F5008093E7
:1019C000F4008091FB008F5F8093FB0089818093FE
:1019D000F6008A818093DD000F900F90CF91DF9108
:1019E0009F918F910F900FBE0F901F9018952FD041
:1019F00008F481E0089557D088F09F5790F0B92FF0
:101A00009927B751A0F0D1F0660F771F881F991F53
:101A10001AF0BA95C9F712C0B13081F05ED0B1E0CA
:101A200008955BC0672F782F8827B85F39F0B93FDA
:101A3000CCF3869577956795B395D9F73EF4909555
:101A40008095709561957F4F8F4F9F4F0895990FA7
:101A50000008550FAA0BE0E8FEEF16161706E80778
:101A6000F907C0F012161306E407F50798F0621B99
:101A7000730B840B950B39F40A2661F0232B242B6E
:101A8000252B21F408950A2609F4A140A6958FEF8D
:101A9000811D811D089557FD9058440F551F59F021
:101AA0005F3F71F04795880F97FB991F61F09F3F4B
:101AB00079F087950895121613061406551FF2CF74
:101AC0004695F1DF08C0161617061806991FF1CFC4
:101AD00086957105610508940895E894BB276627EB
:101AE0007727CB0197F90895B2DF08F48FEF0895B7
:101AF0000AD080C071D028F076D018F0952309F074
:101B000062C067C0EBCFC7DFA8F39923D9F3552391
:101B1000C9F3950F50E0551FAA27EE27FF27BB27D3
:101B200000240894679520F4E20FF31FB41F0A1EE7
:101B3000220F331F441FAA1F6695A9F7779530F42B
:101B4000F30FB41F0A1E121E08F46395330F441FCF
:101B5000AA1F221F769599F7879520F4B40F0A1EC5
:101B6000121E631F440FAA1F221F331F8695A9F759
:101B7000862F712D602D11249F5750408AF0E1F07F
:101B800088234AF0EE0FFF1FBB1F661F771F881FB9
:101B900091505040A9F79E3F510570F014C09ECF60
:101BA0005F3FECF3983EDCF3869577956795B795A4
:101BB000F795E7959F5FC1F7FE2B880F911D9695CE
:101BC000879597F9089597F99F6780E870E060E03E
:101BD00008959FEF80EC089500240A9416161706C6
:101BE00018060906089500240A941216130614060E
:101BF00005060895092E0394000C11F4882352F071
:101C0000BB0F40F4BF2B11F460FF04C06F5F7F4F28
:101C10008F4F9F4F08955527002480FF02C0060E66
:101C2000571F660F771F6115710521F096958795EF
:101C3000009799F7952F802D0895AA1BBB1B51E1A2
:101C400007C0AA1FBB1FA617B70710F0A61BB70B2C
:101C5000881F991F5A95A9F780959095BC01CD01D1
:101C60000895DC01CB01FC01E199FECF06C0FFBB6A
:101C7000EEBBE09A31960DB20D9241505040B8F74C
:101C80000895E199FECF9FBB8EBBE09A99278DB353
:101C90000895A8E1B0E042E050E0E5CFDC01CB01DF
:101CA00002C02D9105D041505040D8F70895262FFD
:101CB000E199FECF1CBA9FBB8EBB2DBB0FB6F8942B
:101CC000E29AE19A0FBE01960895F1DF272FF0CF37
:041CD000F894FFCFB6
:101CD400FFFFFFFFFFFFFFFFFFFFFFFFFFFFFFFF10
:101CE4000A020250D250D278D278D2FFD2FFD280E8
:101CF40000008000006464008080140080000A807A
:101D04000A1E2880808080000080800A14801414B9
:101D14000000000A0B090506010905060B0B0B0B55
:101D24000704020B0B0B0B0109050607040201044F
:101D3400070802010001000200020003010300027F
:041D44000102000098
:00000001FF
