:1000000010C02BC03FC029C028C027C026C025C0B3
:1000100024C023C022C087C020C01FC01EC01DC076
:100020001CC011241FBECFE5D1E0DEBFCDBF10E064
:10003000A0E6B0E0EAEAFFE003C0C89531960D9271
:10004000AA3DB107D1F711E0AAEDB0E001C01D92C1
:10005000A130B107E1F72ED0A7C7D2CF80E882BB8D
:100060008BB780618BBF85B7877E806185BF85B781
:10007000806285BF85B7806285BF889585B78F7D93
:1000800085BF08951F920F920FB60F9211248F9380
:1000900085B78F7D85BF8F910F900FBE0F901F90FA
:1000A000189528D624D0C0D1D7D2F0D098D06AD213
:1000B0007894089580E090E00197F1F7F2DFF8D0AE
:1000C0008091DA0082FF06C0A1D07AD28091DA0056
:1000D0008B7F0AC08091DA0083FFF1CFB1D1BFD20C
:1000E00068D68091DA00877F8093DA00E8CF10BE6F
:1000F00089E083BF8FEF86BF89B7816089BF109287
:10010000FA001092FB001092FC001092FD00109279
:10011000FE0081E49CE09093F8008093F7008CE06F
:100120008093DA0008951F920F920FB60F92112458
:100130002F933F938F939F932091F9003091DA0092
:100140008091F7009091F80001979093F8008093C8
:10015000F7008091F7009091F800892B71F53860D5
:100160002F5F2A3021F534608091FC00882329F02C
:100170008091FC0081508093FC008091FA008F5F99
:100180008093FA008091FA008C3381F48091FD0015
:10019000882329F08091FD0081508093FD0080919B
:1001A000FB008F5F8093FB001092FA0020E081E457
:1001B0009CE09093F8008093F7008091FE008F5FA1
:1001C0008093FE002093F9003093DA009F918F9185
:1001D0003F912F910F900FBE0F901F90189587E8B9
:1001E00086B913B817B8D098D89881E081B9E0E6FD
:1001F000F0E08FEF93E08193919320E0E037F207F6
:10020000D1F70895369A369BFECF08951F93CF936A
:10021000DF93F89410E0C0E0D0E0F4DF84B195B152
:10022000C80FD91F1F5F1830C1F78091DB008F5FA7
:100230008093DB00893011F41092DB00E091DB0049
:10024000FF27EE0FFF1FE05AFF4F93E0D695C795AB
:100250009A95E1F7D183C08320E030E0E0E6F0E05A
:1002600081919191280F391F80E0E037F807C1F79D
:1002700083E0369527958A95E1F730930001209326
:10028000FF007894DF91CF911F91089587B3876025
:1002900087BB8AB38E608ABB88B3876088BB8BB309
:1002A0008E608BBB442466245524772488240895CB
:1002B000DF92EF92FF920F931F93852D992763E0B2
:1002C00070E022D6F92FE82FE059FF4FB08111815D
:1002D000F280872D992763E070E016D6F92FE82F7A
:1002E000E059FF4F0081E180D280582D772009F43A
:1002F00050E04091FE00469538B3ABB38091F900D1
:1003000020E0823008F021E0842D813019F4E1E012
:10031000F0E00DC0823019F0E0E0F0E008C080E0CD
:1003200090E0222311F081E090E0F92FE82F862D54
:10033000813019F461E070E00DC0823019F060E0A6
:1003400070E008C080E090E0222311F081E090E0AE
:10035000682F792F232F27603A2F3E60552331F0E5
:10036000842F992787709070892BB1F4EE2349F080
:100370004B1708F42D7F411708F42E7F4F1508F412
:100380002B7F662349F0401708F4377F4E1508F499
:100390003D7F4D1508F43B7F28BB3BBB1F910F9160
:1003A000FF90EF90DF9008954424662481DF089544
:1003B00081E0582E089591E0792E08952AE0522E7A
:1003C00008953AE0732E089544E0542E089554E0C1
:1003D000752E089565E0562E089575E0772E0895E0
:1003E000E8E05E2E0895F8E07F2E0895A6E05A2EEC
:1003F0000895B6E07B2E089582E0582E089592E08D
:10040000792E089523E0522E089533E0732E089537
:1004100049E0542E089559E0752E089567E0562E50
:10042000089577E0772E0895D798DF9AD498DC9ACC
:100430008AE0809394001092DC001092DD00089511
:10044000CF93DF93CDB7DEB721970FB6F894DEBF19
:100450000FBECDBF209194008091DC009091DD0013
:10046000CF9902C0846001C08B7F89838981CC9938
:1004700002C0806401C08F7B89832D3069F12E30EA
:1004800040F42B30C1F02C30D8F42A3009F04CC0A5
:1004900008C0263179F12731C1F1253109F044C076
:1004A00024C0898182FF02C02BE098E0898186FF09
:1004B0003BC025E10DC0898182FD11C089E02DC0BE
:1004C000898182FF07C0915079F58EE089832DE004
:1004D00098E02AC08AE021C0898182FF03C0915040
:1004E00009F122C089818B7F18C0898186FD10C0E7
:1004F00080E913C0898186FF06C09150A9F480EE7F
:10050000898327E1E5CF80EA08C0898186FF03C09F
:10051000915031F009C089818F7B89832AE004C022
:1005200026E101C02CE092E089818093DC00909369
:10053000DD002093940021960FB6F894DEBF0FBE25
:10054000CDBFDF91CF910895A1E0B0E0082E16D580
:100550000895A1E0B0E000D5802D99270895AED38D
:100560006BD00895B9D370D00895A0E0B0E0F4D472
:10057000802D20E030E08D3D11F421E030E0932F1C
:10058000822F08951092DE0008954091FF0050914F
:10059000000180E090E0E3EEF0E0282F392F808129
:1005A00091814817590748F0932F822F0196329670
:1005B0008830910591F728E030E0932F822F08953D
:1005C0008091DE00882341F0E0DF91E0692E782EF3
:1005D000882311F482E0682E08958FE992E09093C9
:1005E000E4008093E3008AEA92E09093E60080932F
:1005F000E50083EB92E09093E8008093E70082ECC3
:1006000092E09093EA008093E90087ED92E0909366
:10061000EC008093EB0088EF92E09093EE008093E3
:10062000ED008FEF9FEF9093F0008093EF00909399
:10063000F2008093F100089580E1E3EEF0E0A3E0A2
:10064000B0E0182EACD4089580E1E3EEF0E0A3E032
:10065000B0E0182E89D408958AE0282E0895AF922C
:10066000BF92CF92DF92EF92FF920F931F93CF939F
:10067000DF93CDB7DEB721970FB6F894DEBF0FBE7C
:10068000CDBF822DF090DF006091DC006983D090B7
:10069000FC00A090FD00E090E000B090E100C09070
:1006A000E2000091F3001091F500893709F461C16F
:1006B0008A3740F5883209F4A6C0893280F4843143
:1006C00009F467C0853120F48A3009F014C242C0B1
:1006D0008E3109F46DC08F3109F00DC27EC08436B1
:1006E00009F4B6C0853638F4823309F490C08333F8
:1006F00009F001C29EC0883609F4B9C0883709F0F4
:10070000FAC121C1873909F4C3C1883980F483381B
:1007100009F447C1843820F4823809F0ECC13DC1A6
:100720008C3809F4CAC1863909F0E5C1A4C18A3CF4
:1007300009F490C18B3C38F4883C09F46CC1893CC5
:1007400009F0D9C176C18E3F09F4C4C18F3F09F0C9
:10075000D2C1CAC10ADF882309F4CDC1CF9908C02C
:10076000CF9BFECF6FD380E0EFDEA5E0DA2EBAC1DB
:100770008ED3F8DECBD2EDDEF82E882321F4F2E022
:10078000DF2E94E1C5C181E08093DE00E1E0FE2E22
:1007900038C071E0472E42DE61E0662E42DEDD2089
:1007A00011F49EE101C094E18981882371F5B0C103
:1007B00081E08093DE0004DF442480E0C5DEA6D221
:1007C000C1D28981882329F4FF2455E0A52E9FE119
:1007D0009FC1FF2445E0A42E18C0AA2011F498E27E
:1007E00001C09FE1262F3327822F887809F490C11A
:1007F00026703070232B11F094E68AC18F2DA8D17A
:10080000F82E92E385C1D0DD29DC9EE181C1FF2075
:10081000E1F38F2D99DE31E0432EEF2DFF27EA56CD
:10082000FF4F50808091DF0028D270D226E0D22E78
:1008300008C081E0D81611F491E0892E862F8878BF
:1008400011F493E365C18F2D83D1F82E8824D9CF7D
:100850001092DE00882482E0482EC2DD02E0602E85
:10086000C2DD70D21AE0D12E98E6EE2451C1DD200F
:1008700039F0898182FD41C1EE2009F448C13DC1B2
:100880000C2F1D2F0F5F1F4F898183FF17C0E3942B
:100890009CE0E91619F4B1E0EB2E09C0E5E0EE1694
:1008A00031F48091D300882311F4A9E0EA2EF12FCE
:1008B000E02F808182FF02C0F2E0DF2EEE2009F1FE
:1008C00073DDE2E04E2E72E0672E8E2D8150843073
:1008D00010F4BB2401C08C2D6BEFC62ECE0CF3E0C0
:1008E000FC1518F051E0B52E01C0C82EEE2DFF27E3
:1008F0003197AE2FBF2FA656BF4F5C90EB55FF4FE1
:100900007080F12FE02F808182FDF7C0F9E0EF16B3
:1009100011F498ECFDC08AE0E81609F4F0C09BE001
:10092000E91609F4EEC0CC2009F4EDC0E1E0CE16E2
:1009300009F4EBC0F2E0CF1609F4E7C083E0C81673
:1009400009F0DBC0E2C044246624BB2019F441E076
:10095000442E02C031E0632EE091C500FF27E05530
:10096000FF4F5080E091C600FF27E055FF4F708099
:1009700003C0898183FD02C099E7CAC0898181FDD6
:100980008FC0EB2DFF27EB53FF4F80818F5F80835C
:10099000853008F4B8C01082B6C08C2D6ED1B6D1A7
:1009A00031C021E0422E91E0692EBB2071F4083F56
:1009B00010F037DD17C0053610F009DD13C0002335
:1009C00011F01DDD0FC0F7DC0DC0183F10F026DD63
:1009D00009C0153610F0F8DC05C0112311F00CDD4C
:1009E00001C0E6DC898183FF0DC0898181FF02C0DF
:1009F00065D10BCFBB2041F4087F085F0093F30063
:100A00008C2D10D193E884C0187F185F1093F500E7
:100A10008C2D1ED1F7CF81E0482EF4DC01E0602E52
:100A2000F4DC83E02AD172D113E0F12EBAE0DB2EA0
:100A300002C0DD2011F099EC6BC0898182FFE5CE08
:100A4000B3DC36DC2CD2A1E04A2EE8DCF1E06F2EDC
:100A5000E8DC0FC063FF08C0F39494E0F91611F4CA
:100A6000E1E0FE2E8F2D09D1DD2019F42CD276E99C
:100A7000D72E9AEC4DC061E0462E51E0652EE091F4
:100A8000D400FF27E055FF4F8081582E782E03C0F9
:100A9000898183FD02C097E93BC0898181FF03C042
:100AA0000DD134D1B2CE8091D4008F5F8093D40029
:100AB000843038F11092D40024C0898183FF1FC094
:100AC000898181FF1CC070DCCF9BFECF87D085DD84
:100AD00046DD1DC042E0442E83DC32E0632E9BDC09
:100AE000DD20A9F09EEF14C02DD122E0422E60DC63
:100AF00092E0692E60DC9FEF0BC098E609C09CE88D
:100B000007C096E905C098E703C092E801C09AE0E3
:100B10001092DC00D092FC00A092FD00F092DF0069
:100B2000E092E000B092E100C092E200292E21960E
:100B30000FB6F894DEBF0FBECDBFDF91CF911F91EE
:100B40000F91FF90EF90DF90CF90BF90AF900895FE
:100B5000CF93DF93CDB7DEB721970FB6F894DEBF02
:100B60000FBECDBF6983843018F080E090E02DC0C7
:100B7000E82FEE0FEE0FAC2FBD2F1196898183FF6A
:100B800003C0898180FFEF5F8C9187FF06C08C9145
:100B900084FF02C0EE5F01C0ED5FFF27EB54FF4F03
:100BA000E081E13081F48091C700882361F4809175
:100BB000D300882321F08091C900882321F4698122
:100BC00081E0C6DFE82F8E2F992721960FB6F89483
:100BD000DEBF0FBECDBFDF91CF91089582E080933D
:100BE000D4008093C5008093C60090E59093C70021
:100BF00082ED8093C8009093C9008093CA0098E763
:100C00009093CB008093CC009093CD008093CE0046
:100C10009FEF9093CF008093D0009093D10080936A
:100C2000D20008952091FF0030910001369527955C
:100C300036952795E82FFF27EE0FFF1FEE0FFF1FBA
:100C4000EB53FF4F32978091F300819320830895F7
:100C50002091FF0030910001369527953695279514
:100C6000E82FFF27EE0FFF1FEE0FFF1FEB53FF4F85
:100C70008091F5008083218308958530F0F48823E6
:100C800029F41092F3001092F5000895E82FFF2741
:100C9000EE0FFF1FEE0FFF1FEB53FF4F32978081C8
:100CA00032968093F300829131968093F400808194
:100CB0008093F50081818093F60008958EE0E5EC45
:100CC000F0E0A3E1B0E0182E6AD18091D400A1E257
:100CD000B0E0082E53D108958EE0E5ECF0E0A3E1FA
:100CE000B0E0182E41D1A1E2B0E036D1802D809342
:100CF000D40008958AB380668ABB1BBC1ABC19BC99
:100D000018BC1092F3001092F50008952091C600CF
:100D10008091C500843011F490EC01C090E880917E
:100D2000D300882329F0243011F4906301C090622D
:100D300091609FBDE091D400FF27EB52FF4F80816F
:100D40008EBD08951092F3001092F5001ABC18BCE5
:100D50000895F92FE82F8081681720F08F3110F463
:100D6000682F6F5F60830895282F462F8091FF00C2
:100D7000909100019695879596958795382F8823B1
:100D8000A9F0222399F0622F7727842F9927BCD0CE
:100D9000632F77270196CAD06F3F710521F018F0B5
:100DA0008FEF90E00895862F9927089580E090E0D6
:100DB0000895FF920F931F93F8948091F300009190
:100DC000F5006091F400F090F6009091C50010914C
:100DD000C600882311F41ABC12C0992329F094305C
:100DE00019F0933019F4C0DF8ABD09C0913019F0B1
:100DF000923029F4B9DF682F8AE490E0AADF00235B
:100E000011F418BC1AC0112311F0143011F408BDEC
:100E100014C0133029F46F2D802FA6DF88BD0DC0BC
:100E2000113011F4602F06C0123039F46F2D802F6D
:100E30009BDF682F88E490E08CDF78941F910F91FE
:100E4000FF90089580E0AEEFB0E0082E97D00895AF
:100E50001F93CF93DF931FB7F8948AE390E0C3EE1C
:100E6000D0E0B92FA82F85D0E993F993489620E0D8
:100E70008A3F9207B1F7E0DB80E0AEEFB0E0082EEA
:100E80007DD01FBF7894DF91CF911F910895AEEF71
:100E9000B0E062D0802D883E09F4DADF089588EE54
:100EA000AEEFB0E0082E6AD082E290E02FEF3FEF85
:100EB000B92FA82F022E132E6DD0029640E08E3F40
:100EC0009407B1F708954FB7F8942AEF30E0B32FA5
:100ED000A22F4FD0B32FA22F12960E2E1F2E5AD014
:100EE0002250304080E02032380789F78091FF009F
:100EF000909100012E5F3F4FB32FA22F082E192E85
:100F000049D04FBF789408955527002480FF02C030
:100F1000060E571F660F771F6115710521F0969514
:100F20008795009799F7952F802D0895AA1BBB1BD5
:100F300051E107C0AA1FBB1FA617B70710F0A61BD9
:100F4000B70B881F991F5A95A9F780959095682F20
:100F5000792F8A2F9B2F0895E199FECFBFBBAEBB9F
:100F6000E09A11960DB20895F7DF01921A94E1F715
:100F70000895F2DFE02DF0DFF02D0895E199FECF26
:100F8000BFBBAEBB0DBA11960FB6F894E29AE19AC8
:100F90000FBE0895F3DF012CF1DF112408950190B5
:0A0FA000EDDF1A94E1F70895FFCF8A
:100FAA00FFFFFFFFFFFFFFFFFFFFFFFFFFFFFFFF47
:100FBA008000008000006464008080140080000AC1
:100FCA00800A1E2880808080000080800A14801495
:100FDA00140000000A0A0B090506010905060B0B95
:100FEA000B0B0704020B0B0B0B0109050607040286
:100FFA0001040708020100010002000200030103C4
:10100A000002010200020250D250D278D278D2FFF6
:0A101A00D2FFD2010201020304001C
:00000001FF
