:1000000010C02AC03EC028C027C026C025C024C0BA
:1000100023C022C021C08CC01FC01EC01DC01CC078
:100020001BC011241FBECFE5D2E0DEBFCDBF10E064
:10003000A0E6B0E0EEE9FFE002C005900D92AA3D17
:10004000B107D9F711E0AAEDB0E001C01D92A130CF
:10005000B107E1F72ED0A1C7D3CF80E182BB8BB728
:1000600080618BBF85B7877E806185BF85B78062E1
:1000700085BF85B7806285BF889585B78F7D85BF31
:1000800008951F920F920FB60F9211248F9385B788
:100090008F7D85BF8F910F900FBE0F901F90189589
:1000A00011D62AD0CED1ABD2F3D09ED038D278940C
:1000B0000895E8D584EF91E028EC30E0F90131971C
:1000C000F1F70197D9F7ECDFF5D08091DA0082FFE4
:1000D00006C0A1D039D28091DA008B7F0AC080910E
:1000E000DA0083FFF1CFB7D18DD244D68091DA0008
:1000F000877F8093DA00E8CF10BE89E083BF8FEF5F
:1001000086BF89B7816089BF1092FA001092FB0008
:100110001092FC001092FD001092FE0081E49CE021
:100120009093F8008093F7008CE08093DA000895B4
:100130001F920F920FB60F9211242F933F938F931C
:100140009F932091F9003091DA008091F70090910F
:10015000F80001979093F8008093F7008091F700E2
:100160009091F800892B71F538602F5F2A3021F5C6
:1001700034608091FC00882329F08091FC0081503C
:100180008093FC008091FA008F5F8093FA00809149
:10019000FA008C3381F48091FD00882329F080914E
:1001A000FD0081508093FD008091FB008F5F809364
:1001B000FB001092FA0020E081E49CE09093F800AC
:1001C0008093F7008091FE008F5F8093FE00209364
:1001D000F9003093DA009F918F913F912F910F900A
:1001E0000FBE0F901F90189587E886B913B817B8FF
:1001F000D098D89881E081B9E0E6F0E08FEF93E005
:100200008193919320E0E037F207D1F70895369A71
:100210003699FECF0895F89440E020E030E0369A19
:100220003699FECF84B195B1280F391F4F5F483002
:10023000B1F78091DB008F5F8093DB0081508830C5
:1002400011F41092DB00E091DB00F0E0EE0FFF1FF5
:10025000E05AFF4F93E0369527959A95E1F7318361
:100260002083E0E6F0E020E030E081919191280FDA
:10027000391F80E0E037F807C1F783E0369527950E
:100280008A95E1F7309300012093FF007894089558
:100290008AB38E608ABB87B3876087BB8BB38E605F
:1002A0008BBB88B3876088BB44246624552477249D
:1002B00088240895DF92EF92FF920F931F93852D6C
:1002C00090E063E070E00CD6FC01E059FF4F008144
:1002D000E180D280872D90E063E070E001D6FC01E0
:1002E000E059FF4FF080872D90E063E070E0F8D593
:1002F000FC01E059FF4F1181872D90E063E070E031
:10030000EFD5FC01E059FF4FB281F82D772009F4B9
:10031000F0E0E091FE00E695ABB338B38091F900D0
:1003200020E0823008F021E0842D813019F461E072
:1003300070E00CC0823019F060E070E007C080E02F
:1003400090E0222311F081E090E0BC01862D813005
:1003500019F441E050E00CC0823019F040E050E068
:1003600007C080E090E0222311F081E090E0AC0132
:100370002A2F2E603760FF2331F08E2F90E0877098
:100380009070892BB1F4662349F0E01708F42B7FB5
:10039000EE1508F4277FED1508F42D7F442349F06E
:1003A000EF1508F43E7FE11708F43D7FEB1708F4E2
:1003B0003B7F2BBB38BB1F910F91FF90EF90DF90DD
:1003C00008954424662476DF0895552453940895AF
:1003D0007724739408958AE0582E08959AE0792E30
:1003E000089524E0522E089534E0732E089545E0D8
:1003F000542E089555E0752E089568E0562E089500
:1004000078E0772E0895E6E05E2E0895F6E07F2EE0
:100410000895A2E05A2E0895B2E07B2E089583E05D
:10042000582E089593E0792E089529E0522E0895CC
:1004300039E0732E089547E0542E089557E0752E45
:100440000895D498DC9A8AE0809394001092DC009E
:100450001092DD000895DF93CF930F92CDB7DEB7F2
:10046000209194008091DC0089839091DD00CC99EB
:1004700002C0846001C08B7F89832B3079F02C30DF
:1004800018F42A3049F505C02C3069F02D3021F5DB
:1004900016C0898182FF20C02BE00DC0898182FDBA
:1004A00011C089E014C0898182FF07C09150A1F476
:1004B0008EE089832DE098E00FC08AE008C0898132
:1004C00082FF03C0915031F007C089818B7F8983FF
:1004D0002AE002C02CE092E089818093DC009093B6
:1004E000DD00209394000F90CF91DF91089581E07B
:1004F00090E02CD5089580E090E028D590E08D3DE7
:1005000009F491E0892F0895682F81E090E034D5B7
:1005100008959ED364D00895A8D369D00895109209
:10052000DE0008954091FF0050910001E3EEF0E0FD
:1005300020E0808191814817590720F02F5F329683
:100540002830B9F7822F08958091DE008823B9F012
:100550004091FF0050910001E3EEF0E020E0808147
:1005600091814817590720F02F5F32962830B9F74C
:1005700066246394722E222311F482E0682E08957B
:100580008FE992E09093E4008093E3008AEA92E09E
:100590009093E6008093E50083EB92E09093E8006F
:1005A0008093E70082EC92E09093EA008093E90068
:1005B00087ED92E09093EC008093EB0088EF92E05F
:1005C0009093EE008093ED008FEF9FEF9093F000FB
:1005D0008093EF009093F2008093F100089583EEF2
:1005E00090E063E070E040E150E0BDD4089583EE18
:1005F00090E063E070E040E150E098D408958AE034
:10060000282E08959F92AF92BF92CF92DF92EF92E1
:10061000FF920F931F93DF93CF930F92CDB7DEB767
:10062000122DE090DF000091DC000983C090FC00F7
:100630009090FD00D090E000A090E100B090E2002A
:10064000193709F453C11A3740F5183209F4A1C01B
:10065000193280F4143109F467C0153120F41A30CE
:1006600009F012C242C01E3109F46DC01F3109F0F9
:100670000BC27DC0143609F4B1C0153638F41233FC
:1006800009F48AC0133309F0FFC19AC0183609F47F
:10069000B4C0183709F0F8C113C1173909F4C0C143
:1006A000183980F4133809F439C1143820F4123899
:1006B00009F0EAC12FC11C3809F4C8C1163909F084
:1006C000E3C1A1C11A3C09F48BC11B3C38F4183CAE
:1006D00009F466C1193C09F0D7C170C11E3F09F485
:1006E000C2C11F3F09F0D0C1C8C105DF882309F48A
:1006F000CBC1CC9908C0CC9BFECFC3D380E004DF34
:1007000075E0C72EB8C1E5D307DFE8D2F0DEE82EEA
:10071000882321F462E0C62E94E1C5C181E0809374
:10072000DE00EE24E39458C04424439484DE66241F
:10073000639484DECC2011F49EE101C094E1002397
:1007400009F078C1B0C181E08093DE00FDDE442471
:1007500080E0DADEC3D2DED2002329F4EE2455E0B5
:10076000952E9FE1A0C1EE2445E0942E63C199200F
:1007700011F498E201C09FE1898183FF94C1802F29
:10078000867011F094E68FC18E2D602FA8D1E82ECF
:1007900023C017DE62DC4EC1EE2009F44BC18E2D62
:1007A000B3DE44244394EE2DF0E0EA56FF4F508030
:1007B0008091DF0022D292D236E0C32E93E373C140
:1007C00081E0C81611F48824839403FF69C18E2D3B
:1007D000602F85D1E82E882492E365C11092DE0057
:1007E000882422E0422E09DE92E0692E09DE92D2B0
:1007F0008AE0C82E98E6DD2456C1CC2039F08981E4
:1008000082FD44C1DD2009F44DC140C1898183FFCF
:1008100015C09BE0D91619F4DD24D3940AC0D394F3
:1008200085E0D81631F48091D300882311F409E0D3
:10083000D02E898182FF02C0B2E0CB2EDD2001F1F3
:10084000C0DDA2E04A2EF2E06F2E8D2D8150843063
:1008500010F08B2D01C0AA24EBEFBE2EBD0C93E04F
:100860009B1510F4B82E02C0AA24A394ED2DF0E03D
:100870003197DF01A656BF4F5C90EB55FF4F70805C
:10088000898182FD0DC189E0D81611F498EC0BC165
:100890009AE0D91609F4FCC08BE0D81609F4FAC026
:1008A000BB2009F4F9C091E0B91609F4F7C082E061
:1008B000B81609F4F3C093E0B91609F0F1C0EEC020
:1008C00044246624AA2019F44424439402C06624D4
:1008D0006394E091C500F0E0E055FF4F5080E09157
:1008E000C600F0E0E055FF4F708003C0898183FDB2
:1008F00002C099E7D8C0898181FD9AC0EA2DF0E055
:10090000EB53FF4F80818F5F8083853008F4C4C034
:100910001082C2C08B2D71D1E1D140C044244394D8
:1009200066246394F090F3000091F500AA2081F40E
:1009300087EF8F1510F482DD18C094E69F1510F430
:1009400053DD13C0FF2011F067DD0FC041DD0DC086
:10095000083F10F070DD09C0053610F042DD05C01B
:10096000002311F056DD01C030DD898183FF98C07E
:10097000898181FF02C06CD15DC0AA2049F488EF53
:10098000F82298E0F90EF092F3008B2DFAD006C011
:10099000087F085F0093F5008B2D1AD193E883C080
:1009A000442443943CDD662463943CDD83E025D1FC
:1009B00095D173E0E72E6AE0C62E02C0CC2011F07C
:1009C00099EC71C0898182FF35C0FBDC73DC45D2B4
:1009D0004424439430DD6624639430DD9AEC63C094
:1009E00003FF09C083E0E81619F4EE24E39401C084
:1009F000E3948E2D02D1CC2009F052C00FD29AEC94
:100A000056E9C52E50C04424439466246394E09173
:100A1000D400F0E0E055FF4F8081582E782E03C0BF
:100A2000898183FD02C097E93EC0898181FF04C0AE
:100A30000FD154D19EE137C08091D4008F5F809355
:100A4000D400843038F11092D40024C0898183FF0F
:100A50001FC0898181FF1CC0B4DCCC9BFECF6DD050
:100A60008FDD57DD1FC042E0442EC7DC32E0632E2D
:100A7000DFDCCC20B9F09EEF16C04CD122E0422E34
:100A8000A4DC92E0692EA4DC9FEF0DC098E60BC0B9
:100A90009CE809C096E907C098E705C092E803C042
:100AA000912F01C09AE01092DC00C092FC0090925D
:100AB000FD00E092DF00D092E000A092E100B09251
:100AC000E200292E0F90CF91DF911F910F91FF909F
:100AD000EF90DF90CF90BF90AF909F900895DF93FD
:100AE000CF930F92CDB7DEB76983843010F0E0E08A
:100AF0001FC0E82FEE0FEE0F898183FF03C08981AD
:100B000080FFEF5FF0E0EB54FF4FE081E13081F4D4
:100B10008091C700882361F48091D300882321F05D
:100B20008091C900882321F481E06981D8DFE82F12
:100B30008E2F0F90CF91DF91089582E08093D400A3
:100B40008093C5008093C60090E59093C70082ED26
:100B50008093C8009093C9008093CA0098E790934F
:100B6000CB008093CC009093CD008093CE009FEF7C
:100B70009093CF008093D0009093D1008093D200C7
:100B800008950F931F930091FF0010910001169597
:100B9000079516950795282F30E0C9016EEF7FEF76
:100BA0009FD1FC01E095F095A5ECB0E0EE0FFF1FA2
:100BB000EA0FFB1F8091F3008083220F331F220F67
:100BC000331FA20FB31F11970C931F910F9108951C
:100BD0002091FF0030910001369527953695279595
:100BE000E82FF0E0EE0FFF1FEE0FFF1FEB53FF4F5C
:100BF0008091F500808321830895853040F5882316
:100C000029F41092F3001092F5000895A82FB0E097
:100C1000CD016EEF7FEF64D1FC01E095F095EE0F12
:100C2000FF1FEB53FF4F80818093F300AA0FBB1F80
:100C3000AA0FBB1FAB53BF4F8E9111968093F40048
:100C40008C918093F50011968C918093F600089515
:100C500085EC90E063E170E04EE050E084D181E209
:100C600090E06091D40088D1089585EC90E063E134
:100C700070E04EE050E05AD181E290E067D180937D
:100C8000D4000895D598DD9A87E886B980E183B9C4
:100C900085E087B920E040E157E2CA010197F1F70A
:100CA000369A369BFECF85B12F5F2830B1F7109270
:100CB000D3008353853918F481E08093D3001ABAA6
:100CC0001BBA08958AB380668ABB1BBC1ABC19BCC8
:100CD00018BC1092F3001092F50008952091C60000
:100CE0008091C500843011F090E801C090EC8091B3
:100CF000D300882329F0243011F4906301C090625E
:100D000091609FBDE091D400F0E0EB52FF4F8081F5
:100D10008EBD08951092F3001092F5001ABC18BC15
:100D20000895FC018081681720F08F3110F4682F3E
:100D30006F5F60830895482F2091FF00309100017C
:100D40003695279536952795222391F0442381F0F7
:100D5000862F90E0642F70E0C3D00196622F70E080
:100D6000D1D0CB016F3F710521F018F08FEF0895BE
:100D700080E00895FF920F931F93F8948091F30001
:100D80001091F5006091F400F090F6009091C5008C
:100D90000091C600882311F41ABC15C0992391F064
:100DA000943081F0933011F4C6DF0CC0913019F00B
:100DB000923049F4C0DF9AB5891720F09F3110F4C2
:100DC000892F8F5F8ABD112311F418BC22C0002324
:100DD00089F0043079F0033021F4812F6F2DABDFDF
:100DE00017C0013049F488B5181720F08F3110F47E
:100DF000182F1F5F18BD0DC0023059F4812F6F2DC1
:100E00009ADF98B5891720F09F3110F4892F8F5FF2
:100E100088BD78941F910F91FF9008951F93CF93F1
:100E2000DF931FB7F894CAEFD0E0CE0197D0BC0192
:100E3000CE010296AFD0229780E0C032D807A9F742
:100E40006091FF0070910001CE010296A3D01FBFF8
:100E50007894DF91CF911F910895CF93DF938EEF18
:100E600090E068EE89D0C2E2D0E0CE016FEF7FEF74
:100E700091D0229680E0CE3FD807B9F7DF91CF918D
:100E800008958EEF90E060E077D00895FF920F9381
:100E90001F93CF93DF93FFB6F894CAE3D0E003EE3D
:100EA00010E0CE015BD0F801819391938F01689699
:100EB000F0E0CA3FDF07A9F792DB8EEF90E060E039
:100EC0005BD0FFBE7894DF91CF911F910F91FF907F
:100ED00008958EEF90E03AD0883E09F4D7DF089568
:100EE0005527002480FF02C0060E571F660F771F8C
:100EF0006115710521F096958795009799F7952FC3
:100F0000802D0895AA1BBB1B51E107C0AA1FBB1F60
:100F1000A617B70710F0A61BB70B881F991F5A9585
:100F2000A9F780959095BC01CD010895DC01CB0116
:100F3000FC01E199FECF06C0FFBBEEBBE09A319603
:100F40000DB20D9241505040B8F70895E199FECF8F
:100F50009FBB8EBBE09A99278DB30895A8E1B0E0BE
:100F600042E050E0E5CFDC01CB0102C02D9105D07D
:100F700041505040D8F70895262FE199FECF1CBA72
:100F80009FBB8EBB2DBB0FB6F894E29AE19A0FBEC1
:0E0F900001960895F1DF272FF0CFF894FFCFE0
:100F9E00FFFFFFFFFFFFFFFFFFFFFFFFFFFFFFFF53
:100FAE008000008000006464008080140080000ACD
:100FBE00800A1E2880808080000080800A148014A1
:100FCE00140000000A0A0B090506010905060B0BA1
:100FDE000B0B0704020B0B0B0B0109050607040292
:100FEE0001040708020100010002000200030103D0
:100FFE000002010200020250D250D278D278D2FF03
:0A100E00D2FFD20102010203040028
:00000001FF
