:100000000C9438000C9470000C9470000C947000E8
:100010000C9470000C9472000C9470000C9470009E
:100020000C9470000C9470000C9470000C94700090
:100030000C9470000C9470000C9470000C94700080
:100040000C9470000C9470000C9470000C94700070
:100050000C9470000C9470000C9470000C94700060
:100060000C9470000C9470000C9470000C94700050
:1000700011241FBECFEFD4E0DEBFCDBF88E181BD2C
:1000800011BC11E0A0E0B1E0E8ECF2E002C00590A4
:100090000D92A030B107D9F711E0A0E0B1E001C0A6
:1000A0001D92A130B107E1F78091FF048093000118
:1000B0001ABA17BA14BA11BA21E026B99FEF9BBB3E
:1000C00098BB8EEF85BB92BB97B920936C0080E103
:1000D0008BBF80E385BF14BE16BE22240C948E0015
:1000E0000C9400001F920F920FB60F9211248F9361
:1000F0009F93922D990F80B38170982B292E9A3A55
:1001000031F4A89588E181BD88E081BDFFCF9F9142
:100110008F910F900FBE0F901F901895CCEED4E0EA
:10012000DEBFCDBF78942DB73EB73B8B2A8B0E94A4
:10013000FB1FC92EDD2434E0A32EB12CAC0CBD1C5A
:100140000E94FB1FDC01CB019C01AD015527290159
:100150004DB75EB74A195B090FB6F8945EBF0FBE84
:100160004DBF0DB71EB70F5F1F4FC201AA27BB2798
:100170009801A501BC01CD010E94FC1FA0E0B0E0E8
:10018000C501F801019724F001900E945301FACFB4
:100190000E94FB1F9B01AC01552779018A010E9437
:1001A000FB1F892F9927AA27BB27E80EF91E0A1FD4
:1001B0001B1F83E090E0A0E0B0E0E80EF91E0A1FEC
:1001C0001B1F9E012F5E3F4F41E050E0C801B70169
:1001D0000E94FC1F898999279695982F88279795C3
:1001E0008795ECEFFFE3E81BF90B4591559165917D
:1001F0007491A5E0B0E0CA0EDB1ED501072E0E9467
:10020000530196010894C11CD11CD901062E0E94ED
:10021000530196010894C11CD11CD901052E0E94DE
:10022000530136010894611C711CD601042E0E94F2
:10023000530180E04E010894811C911CF4018193CC
:100240008F5F8031E0F34A0C5B1C7201002711279D
:10025000D801C701BCEA940140E150E0BC01CD01E6
:100260000E94FD1FF4018FEF9FE0C92E8193CA9475
:100270008150C7FEFBCF80E1C82E940140E150E0E1
:10028000C801B7010E94FC1FD301F4011C2C0E947D
:100290005F012A893B890FB6F8943EBF0FBE2DBF80
:1002A00038988895FECFE199FECFBFBBAEBB0DBAA3
:1002B00011960FB6F894E29AE19A0FBE0895019054
:0802C000F2DF1A94E1F7089542
:00000001FF
