:1000000010C02BC03FC029C028C027C026C025C0B3
:1000100024C023C022C08BC020C01FC01EC01DC072
:100020001CC011241FBECFE5D1E0DEBFCDBF10E064
:10003000A0E6B0E0E2E7F0E103C0C89531960D928A
:10004000AA3DB107D1F711E0AAEDB0E001C01D92C1
:10005000A130B107E1F730D00BC8D2CF80E182BB2D
:100060008BB780618BBF85B7877E806185BF85B781
:10007000806285BF85B7806285BF889585B78F7D93
:1000800085BF08951F920F920FB60F9211248F9380
:1000900085B78F7D85BF8F910F900FBE0F901F90FA
:1000A000189551D66FD627D01DD208D34DD107D180
:1000B0009BD299D07894089580E090E00197F1F771
:1000C000F0DF70D270D252D18091DA0082FF06C088
:1000D000FFD0A8D28091DA008B7F0AC08091DA002D
:1000E00083FFF1CF09D2EDD2ACD68091DA00877FC1
:1000F0008093DA00E8CF10BE89E083BF8FEF86BF20
:1001000089B7816089BF1092FA001092FB001092AB
:10011000FC001092FD001092FE0081E49CE09093A0
:10012000F8008093F7008CE08093DA0008951F9226
:100130000F920FB60F9211242F933F938F939F939B
:100140002091F9003091DA008091F7009091F80049
:1001500001979093F8008093F7008091F7009091B9
:10016000F800892B71F538602F5F2A3021F5346053
:100170008091FC00882329F08091FC0081508093BD
:10018000FC008091FA008F5F8093FA008091FA0062
:100190008C3381F48091FD00882329F08091FD004B
:1001A00081508093FD008091FB008F5F8093FB0066
:1001B0001092FA0020E081E49CE09093F800809394
:1001C000F7008091FE008F5F8093FE002093F9007E
:1001D0003093DA009F918F913F912F910F900FBE36
:1001E0000F901F901895DC9AD49A0895F894282FB0
:1001F0003327220F331F366082E48A95F1F792E4A9
:1002000020FF02C0DC9A01C0DC9836952795892F23
:100210008A95F1F72115310599F7789408950F9390
:100220001F93082F192F892F9927E0DF802FDEDFFA
:100230001F910F910895EF92FF920F931F93082F34
:10024000192F68EE73E0D9D6E62EF72E862F805D43
:10025000CDDF9F2D8E2D68EE73E0A7D6081B190BFE
:10026000912F802F64E670E0C8D6E62EF72E862FF9
:10027000805DBCDF9F2D8E2D64E670E096D6081B56
:10028000190B912F802F6AE070E0B7D6E62EF72E7B
:10029000862F805DABDF9F2D8E2D6AE070E085D6C6
:1002A000081B190B802F805DA1DF1F910F91FF901C
:1002B000EF9008958DE09ADF8AE098DF089587E84F
:1002C00086B913B817B8D098D89881E081B9089545
:1002D000F89420E030E040E0369A369BFECF84B1BF
:1002E00095B1280F391F4F5F4830B1F78091DB007F
:1002F0008F5F8093DB00893011F41092DB00E09176
:10030000DB00FF27EE0FFF1FE05AFF4F93E036950B
:1003100027959A95E1F73183208320E030E0E0E6ED
:10032000F0E081919191280F391F80E0E037F807C4
:10033000C1F783E0369527958A95E1F73093000160
:100340002093FF00789408958AB38E608ABB87B3A8
:10035000876087BB8BB38E608BBB88B3876088BB9D
:10036000442466245524772488240895DF92EF924C
:10037000FF920F931F93852D992763E070E015D6A8
:10038000F92FE82FE059FF4FB0811181F280872DBE
:10039000992763E070E009D6F92FE82FE059FF4F65
:1003A0000081E180D280582D772009F450E04091FF
:1003B000FE0046953BB3A8B38091F90020E082305F
:1003C00008F021E0842D813019F4E1E0F0E00DC067
:1003D000823019F0E0E0F0E008C080E090E02223F5
:1003E00011F081E090E0F92FE82F862D813019F48B
:1003F00061E070E00DC0823019F060E070E008C08C
:1004000080E090E0222311F081E090E0682F792FC6
:10041000232F2E603A2F3760552331F0842F9927F0
:1004200087709070892BB1F4EE2349F04B1708F4D4
:100430002B7F411708F4277F4F1508F42D7F662383
:1004400049F0401708F43E7F4E1508F43D7F4D15E6
:1004500008F43B7F2BBB38BB1F910F91FF90EF90AF
:10046000DF9008954424662481DF089581E0582EAA
:10047000089591E0792E08952AE0522E08953AE0E9
:10048000732E089544E0542E089554E0752E089577
:1004900065E0562E089575E0772E0895E8E05E2E0B
:1004A0000895F8E07F2E0895A6E05A2E0895B6E04C
:1004B0007B2E089582E0582E089592E0792E0895BB
:1004C00023E0522E089533E0732E089549E0542E10
:1004D000089559E0752E089567E0562E089577E047
:1004E000772E0895D498DC9A8AE080939400109235
:1004F000DC001092DD000895CF93DF93CDB7DEB717
:1005000021970FB6F894DEBF0FBECDBF20919400A7
:100510008091DC009091DD00CC9902C0846001C024
:100520008B7F89832B3079F02C3018F42A3049F5F1
:1005300005C02C3069F02D3021F516C0898182FF6D
:1005400020C02BE00DC0898182FD11C089E014C05C
:10055000898182FF07C09150A1F48EE089832DE04C
:1005600098E00FC08AE008C0898182FF03C09150E3
:1005700031F007C089818B7F89832AE002C02CE09B
:1005800092E089818093DC009093DD0020939400B9
:1005900021960FB6F894DEBF0FBECDBFDF91CF918D
:1005A000089508950895089508950895A1E0B0E08C
:1005B000082E48D50895A1E0B0E032D5802D9927C6
:1005C0000895A5D36BD00895B0D370D00895A0E05E
:1005D000B0E026D5802D20E030E08D3D11F421E003
:1005E00030E0932F822F08951092DE0008954091FD
:1005F000FF005091000180E090E0E3EEF0E0282F52
:10060000392F808191814817590748F0932F822F05
:10061000019632968830910591F728E030E0932FCB
:10062000822F08958091DE00882341F0E0DF91E081
:10063000692E782E882311F482E0682E08958FE9C0
:1006400092E09093E4008093E3008AEA92E0909332
:10065000E6008093E50083EB92E09093E8008093BE
:10066000E70082EC92E09093EA008093E90087ED46
:1006700092E09093EC008093EB0088EF92E09093EF
:10068000EE008093ED008FEF9FEF9093F00080934A
:10069000EF009093F2008093F100089580E1E3EE83
:1006A000F0E0A3E0B0E0182EDED4089580E1E3EEA0
:1006B000F0E0A3E0B0E0182EBBD408958AE0282E25
:1006C0000895AF92BF92CF92DF92EF92FF920F9375
:1006D0001F93CF93DF93CDB7DEB721970FB6F89472
:1006E000DEBF0FBECDBF822DF090DF006091DC0039
:1006F0006983D090FC00A090FD00E090E000B090F5
:10070000E100C090E2000091F3001091F5008937FC
:1007100009F465C18A3740F5883209F4A8C08932E6
:1007200080F4843109F46DC0853120F48A3009F0F9
:100730001BC242C08E3109F473C08F3109F014C25C
:1007400085C0843609F4BBC0853638F4823309F499
:1007500092C0833309F008C2A3C0883609F4BEC032
:10076000883709F001C225C1873909F4C8C1883921
:1007700080F4833809F44CC1843820F4823809F0BD
:10078000F3C142C18C3809F4CFC1863909F0ECC1FC
:10079000ABC18A3C09F496C18B3C38F4883C09F41F
:1007A00072C1893C09F0E0C17CC18E3F09F4CAC125
:1007B0008F3F09F0D9C1D1C10ADF882309F4D4C120
:1007C000CC9908C0CC9BFECF85D380E0EFDEA5E0BE
:1007D000DA2EC1C1A5D3F8DEE1D2EDDEF82E8823F2
:1007E00021F4F2E0DF2E14E106C081E08093DE0008
:1007F000E1E0FE2E12E3D6DED6DED6DED6DED1DE98
:10080000BCC171E0472E68DE61E0662E68DEDD2047
:1008100011F41EE101C014E18981882351F5ADC1B5
:10082000C0DE81E08093DE00FDDE442480E0BEDE99
:10083000B5D2D0D28981882329F4FF2455E0A52E92
:100840001FE19BC1FF2445E0A42E13C0AA2011F490
:1008500018E201C01FE1898183FF8FC1862F867056
:1008600011F014E68AC18F2DA8D1F82E26C0FADD2A
:10087000F5DB1EE182C195DE8091DF008823C9F39C
:100880008F2D94DE31E0432EEF2DFF27EA56FF4FE8
:1008900050808091DF001AD281D226E0D22E07C08C
:1008A00081E0D81611F491E0892E63FD02C013E3B4
:1008B00064C18F2D82D1F82E882412E35EC110927C
:1008C000DE00882482E0482EE9DD02E0602EE9DDCA
:1008D00081D21AE0D12E18E6EE244FC1DD2039F086
:1008E000898182FD43C1EE2009F040C129C10C2F4E
:1008F0001D2F0F5F1F4F898183FF17C0E3949CE07A
:10090000E91619F4B1E0EB2E09C0E5E0EE1631F47A
:100910008091D300882311F4A9E0EA2EF12FE02F73
:10092000808182FF02C0F2E0DF2EEE2009F19ADD25
:10093000E2E04E2E72E0672E8E2D8150843010F44E
:10094000BB2401C08C2D6BEFC62ECE0CF3E0FC1542
:1009500018F051E0B52E01C0C82EEE2DFF273197BB
:10096000AE2FBF2FA656BF4F5C90EB55FF4F708048
:10097000F12FE02F808182FDF9C0F9E0EF1611F42C
:1009800018ECFBC08AE0E81609F4F2C09BE0E91617
:1009900009F4F0C0CC20B1F1E1E0CE1609F4ECC0CE
:1009A000F2E0CF1609F4E8C083E0C81609F0DEC013
:1009B000E3C044246624BB2019F441E0442E02C065
:1009C00031E0632EE091C500FF27E055FF4F5080D6
:1009D000E091C600FF27E055FF4F708003C089817A
:1009E00083FD02C019E7C9C0898181FD90C0EB2D4C
:1009F000FF27EB53FF4F80818F5F8083853008F0A6
:100A00001082D1DD18E7B9C08C2D60D1C7D139C0B3
:100A100021E0422E91E0692EBB2071F4083F10F0D6
:100A20005EDD17C0053610F030DD13C0002311F075
:100A300044DD0FC01EDD0DC0183F10F04DDD09C0B4
:100A4000153610F01FDD05C0112311F033DD01C094
:100A50000DDD898183FF15C0898181FF02C057D1D7
:100A600008CFBB2039F4087F085F0093F3008C2D7A
:100A700002D106C0187F185F1093F5008C2D11D19C
:100A800092DD13E87AC081E0482E1ADD01E0602E85
:100A90001ADD83E01BD182D113E0F12EBAE0DB2E08
:100AA00002C0DD2011F019EC68C0898182FFE1CE1F
:100AB000D9DC5CDC40D2A1E04A2E0EDDF1E06F2EE5
:100AC0000EDD10C063FF08C0F39494E0F91611F432
:100AD000E1E0FE2E8F2DFAD0DD2021F441D265DD3C
:100AE00076E9D72E1AEC49C061E0462E51E0652E1A
:100AF0008091D400880F8F5F582E782E03C0898193
:100B000083FD02C017E939C0898181FF03C0FFD08E
:100B100045D1AFCE8091D4008F5F8093D4008430D4
:100B200048F11092D40026C0898183FF21C08981B9
:100B300081FF1EC097DCCC9BFECF79D080DD41DDEC
:100B40001AE01BC042E0442EA9DC32E0632EC7DC71
:100B5000DD2009F48ECE1EEF10C03CD122E0422EE3
:100B600085DC92E0692E85DC1FEF07C018E605C022
:100B70001CE803C016E901C012E81092DC00D09214
:100B8000FC00A092FD00F092DF00E092E000B09245
:100B9000E100C092E200212E21960FB6F894DEBF4C
:100BA0000FBECDBFDF91CF911F910F91FF90EF90BE
:100BB000DF90CF90BF90AF900895CF93DF93CDB7E4
:100BC000DEB721970FB6F894DEBF0FBECDBF6983A5
:100BD000843018F080E090E021C0E82FEE0FEE0F97
:100BE000898183FF03C0898180FFEF5FFF27EB547A
:100BF000FF4FE081E13081F48091C700882361F4E8
:100C00008091D300882321F08091C900882321F4AA
:100C1000698181E0D2DFE82F8E2F992721960FB6C8
:100C2000F894DEBF0FBECDBFDF91CF91089582E073
:100C30008093D4008093C5008093C60090E5909384
:100C4000C70082ED8093C8009093C9008093CA00CA
:100C500098E79093CB008093CC009093CD00809345
:100C6000CE009FEF9093CF008093D0009093D1005F
:100C70008093D20008952091FF00309100013695B5
:100C8000279536952795E82FFF27EE0FFF1FEE0FCC
:100C9000FF1FEB53FF4F32978091F3008193208326
:100CA00008952091FF0030910001369527953695E3
:100CB0002795E82FFF27EE0FFF1FEE0FFF1FEB53C7
:100CC000FF4F8091F5008083218308958530F0F4F3
:100CD000882329F41092F3001092F5000895E82F6C
:100CE000FF27EE0FFF1FEE0FFF1FEB53FF4F329753
:100CF000808132968093F300829131968093F40044
:100D000080818093F50081818093F60008958EE0C4
:100D1000E5ECF0E0A3E1B0E0182EA5D18091D4007D
:100D2000A1E2B0E0082E8ED108958EE0E5ECF0E06F
:100D3000A3E1B0E0182E7CD1A1E2B0E071D1802D0A
:100D40008093D4000895D598DD9A87E886B980E12C
:100D500083B985E087B985E28A95F1F7369A349BA5
:100D6000FECF369A349BFECF85B11092D3008353C9
:100D7000833618F481E08093D30016B813B81ABAFA
:100D80001BBA08958AB380668ABB1BBC1ABC19BC07
:100D900018BC1092F3001092F50008952091C6003F
:100DA0008091C500843011F490EC01C090E88091EE
:100DB000D300882329F0243011F4906301C090629D
:100DC00091609FBDE091D400FF27EB52FF4F8081DF
:100DD0008EBD08951092F3001092F5001ABC18BC55
:100DE0000895F92FE82F8081681720F08F3110F4D3
:100DF000682F6F5F60830895282F462F8091FF0032
:100E0000909100019695879596958795382F882320
:100E1000A9F0222399F0622F7727842F9927C5D034
:100E2000632F77270196D3D06F3F710521F018F01B
:100E30008FEF90E00895862F9927089580E090E045
:100E40000895FF920F931F93F8948091F3000091FF
:100E5000F5006091F400F090F6009091C5001091BB
:100E6000C600882311F41ABC12C0992329F09430CB
:100E700019F0933019F4C0DF8ABD09C0913019F020
:100E8000923029F4B9DF682F8AE490E0AADF0023CA
:100E900011F418BC1AC0112311F0143011F408BD5C
:100EA00014C0133029F46F2D802FA6DF88BD0DC02C
:100EB000113011F4602F06C0123039F46F2D802FDD
:100EC0009BDF682F88E490E08CDF78941F910F916E
:100ED000FF90089580E0AEEFB0E0082EB3D0089503
:100EE0001F93CF93DF931FB760DBF8948AE390E002
:100EF000C3EED0E0B92FA82FA0D0E993F99348967C
:100F000020E08A3F9207B1F7C9DB80E0AEEFB0E0A6
:100F1000082E98D01FBF7894DF91CF911F9108952C
:100F20001F93AEEFB0E07CD0102D3FDB183E09F4EC
:100F3000D7DF1F91089588EEAEEFB0E0082E82D083
:100F400082E290E02FEF3FEFB92FA82F022E132E51
:100F500085D0029640E08E3F9407B1F726DB0895D6
:100F60001F931FB7F8942AEF30E0B32FA22F65D05C
:100F7000B32FA22F12960E2E1F2E70D0225030406B
:100F800080E02032380789F78091FF0090910001BE
:100F90002E5F3F4FB32FA22F082E192E5FD001DBFB
:100FA00004DB1FBF78941F9108955527002480FF0C
:100FB00002C0060E571F660F771F6115710521F0DD
:100FC00096958795009799F7952F802D0895AA1BE0
:100FD000BB1B51E107C0AA1FBB1FA617B70710F024
:100FE000A61BB70B881F991F5A95A9F78095909556
:100FF000682F792F8A2F9B2F089597FB092E07269C
:101000000AD077FD04D0E3DF06D000201AF47095F3
:1010100061957F4F0895F6F7909581959F4F0895BC
:10102000E199FECFBFBBAEBBE09A11960DB2089519
:10103000F7DF01921A94E1F70895F2DFE02DF0DF77
:10104000F02D0895E199FECFBFBBAEBB0DBA11964E
:101050000FB6F894E29AE19A0FBE0895F3DF012CDF
:10106000F1DF112408950190EDDF1A94E1F708955E
:02107000FFCFB0
:10107200FFFFFFFFFFFFFFFFFFFFFFFFFFFFFFFF7E
:101082008000008000006464008080140080000AF8
:10109200800A1E2880808080000080800A148014CC
:1010A200140000000A0A0B090506010905060B0BCC
:1010B2000B0B0704020B0B0B0B01090506070402BD
:1010C20001040608020100010002000200030103FC
:1010D2000002010200020250D250D278D278D2FF2E
:0A10E200D2FFD20102010203040054
:00000001FF
