:1000000010C02AC0CEC128C027C026C025C024C029
:1000100023C022C021C0F1C61FC01EC01DC01CC00D
:100020001BC011241FBECFE5D2E0DEBFCDBF10E064
:10003000A0E6B0E0EAE7FFE002C005900D92AA3D1D
:10004000B107D9F711E0AAEDB0E001C01D92A130CF
:10005000B107E1F7BED18FC7D3CF1092DA00089570
:1000600083EE90E060E070E040E150E04DD708950D
:1000700083EE90E060E070E040E150E062D70895E8
:100080002091F3003091F400E3EEF0E080E0419144
:1000900051912417350718F08F5F8830C1F7089504
:1000A0008091DA00882341F0EBDF66246394782E98
:1000B000882311F482E0682E08958FE992E09093EE
:1000C000E4008093E3008AEA92E09093E600809354
:1000D000E50083EB92E09093E8008093E70082ECE8
:1000E00092E09093EA008093E90087ED92E090938C
:1000F000EC008093EB0088EF92E09093EE00809309
:10010000ED008FEF9FEF9093F0008093EF009093BE
:10011000F2008093F100089587E886B913B817B804
:10012000D098D89881E081B98FEF93E090936100E7
:1001300080936000909363008093620090936500C9
:1001400080936400909367008093660090936900A9
:100150008093680090936B0080936A0090936D0089
:1001600080936C0090936F0080936E000895369A90
:100170003699FECF08951F93CF93DF93F89418E03C
:10018000C0E0D0E0F4DF84B195B1C80FD91F1150A1
:10019000C9F743E0D695C7954A95E1F78091DB0012
:1001A000982F9F5F9093DB00883011F41092DB0052
:1001B000E091DB00F0E0EE0FFF1FE05AFF4FD1832C
:1001C000C083E0E6F0E080E090E021913191820F81
:1001D000931F20E0E037F207C1F723E0969587955B
:1001E0002A95E1F79093F4008093F3007894DF91DF
:1001F000CF911F910895D498DC9A8AE08093700083
:100200001092DC001092DD000895DF93CF930F92DF
:10021000CDB7DEB7909170002091DC0029838091EA
:10022000DD00CC9902C0246001C02B7F29839B3064
:1002300071F09C3018F49A3061F505C09C3061F083
:100240009D3039F516C0298122FD1EC022C02981AA
:1002500022FD12C099E015C0298122FF07C08150FC
:10026000C1F48EE0898388E09DE013C09AE0998311
:1002700010C0298122FF03C0815049F00AC0998132
:100280009B7F99839AE005C088E09BE002C082E0F2
:100290009CE029812093DC008093DD009093700026
:1002A0000F90CF91DF9108958CEE90E060E052D6F0
:1002B0000895CF93DF938CEE90E068EE4BD6C0E0CC
:1002C000D0E0CE01880F991F805F9F4F6FEF7FEFC7
:1002D0004FD62196CE36D105A1F7DF91CF91089563
:1002E0001F93CF93DF931FB7F894CCE6D0E0CE01F5
:1002F000880F991F805F9F4F1FD6BC01CE01880FCA
:10030000991F8E5E9F4F34D621978FEFCF3FD8072E
:1003100071F76091F3007091F40080E190E028D6CD
:100320001FBF7894DF91CF911F910895FF920F9393
:100330001F93CF93DF93FFB6F894C8E2D0E003EEAB
:1003400010E0CE01F9D5F801819391938F01689661
:10035000F0E0C83EDF07A9F78BDEA6DFFFBE78948A
:10036000DF91CF911F910F91FF9008958CEE90E057
:10037000DBD5883E09F4DADF089580E182BB8BB7D4
:1003800080618BBF85B7877E806185BF85B78062BE
:1003900085BF85B7806285BF889585B78F7D85BF0E
:1003A00008951F920F920FB60F9211248F9385B765
:1003B0008F7D85BF8F910F900FBE0F901F90189566
:1003C00062D0FFD418DF62D297D1A6DE46DE7894E1
:1003D00008953AD08FE798E3A1E081509040A04083
:1003E000E1F700C00000ECDF99D18091E20082FFCC
:1003F00006C0C1DE55DE8091E2008B7F0AC080918D
:10040000E20083FFF1CF01DF44D296D08091E20079
:10041000877F8093E200E8CF8DEE90E085D591E074
:100420008D3D09F090E0892F0895D9D019DE089507
:10043000E3D01EDE0895682F8EEE90E08BD50895F0
:100440008EEE90E071D50895D598DD9A87E886B94B
:1004500080E183B985E087B988E0EFE0F7E2319782
:10046000F1F700C00000369A369BFECF95B181505F
:10047000A1F7935381E0953908F080E080937100F3
:100480001ABA1BBA08958AB380668ABB1BBC1ABC11
:1004900019BC18BC1092F5001092F70008959091C5
:1004A000780080917700843011F480EC01C080E8FE
:1004B00020917100222329F0943011F4806301C04F
:1004C000806281608FBDE0917200F0E0ED58FF4FD7
:1004D00080818EBD08951092F5001092F7001ABC2D
:1004E00018BC0895FC018081681720F08F3110F44A
:1004F000682F6F5F60830895482F862F2091F30047
:100500003091F4003695279536952795222381F072
:10051000442371F090E0642F70E0D0D40196622FF4
:1005200070E0DED46F3F710509F020F4862F089546
:1005300080E008958FEF0895FF920F931F93F89432
:100540002091F5001091F7006091F600F090F8000E
:100550008091770000917800222311F41ABC1AC010
:10056000882311F0843011F42ABD14C0833021F4A3
:10057000822FC2DF8ABD0EC0813021F48AE490E070
:10058000622F07C0823031F4822FB6DF682F8AE4F1
:1005900090E0A8DF112311F418BC1CC0002311F057
:1005A000043011F418BD16C0033029F4812F6F2DCB
:1005B000A3DF88BD0FC0013021F488E490E0612FF3
:1005C00008C0023039F4812F6F2D96DF682F88E440
:1005D00090E088DF78941F910F91FF90089587E74E
:1005E00090E061EF70E04EE050E08ED480EF90E05C
:1005F0009BD480937200089587E790E061EF70E0EC
:100600004EE050E09ED480EF90E060917200A2D462
:10061000089582E080937200809377008093780041
:1006200090E59093790082ED80937A0090937B001F
:1006300080937C0098E790937D0080937E00909358
:100640007F00809380009FEF9093810080938200D1
:10065000909383008093840008952091F30030915B
:10066000F400369527953695279590E0880F991FC9
:10067000880F991F89589F4FFC0132974091F500D0
:1006800040830197FC01208308952091F30030916D
:10069000F4003695279536952795E82FF0E0EE0F74
:1006A000FF1FEE0FFF1FE958FF4F8091F700808377
:1006B000218308958530F8F4882329F41092F500F9
:1006C0001092F7000895E82FF0E0EE0FFF1FEE0FF5
:1006D000FF1FE958FF4FDF0112978C918093F500BF
:1006E000DF0111978C918093F60080818093F70051
:1006F00081818093F80008958AB38E608ABB87B3A6
:10070000876087BB8BB38E608BBB88B3876088BBE9
:10071000442466245524772488240895FF920F9357
:100720001F93852D90E063E070E0C8D3FC01EB5788
:10073000FF4FB081A1811281872D90E063E070E0CE
:10074000BDD3FC01EB57FF4F4081872D90E063E064
:1007500070E0B4D3FC01EB57FF4F0181872D90E08F
:1007600063E070E0ABD3FC01EB57FF4FF280F82D54
:10077000772009F4F0E05091000156957BB368B3FF
:100780008091FB00E1E0823008F4E0E0842D8130CC
:1007900029F0823031F42E2F30E005C021E030E026
:1007A00002C020E030E0862D813039F0823041F403
:1007B00081E090E0EE2331F403C081E090E002C0DC
:1007C00080E090E07E606760FF2319F0E52FE7701E
:1007D000B9F42115310549F05B1708F47B7F5A17EE
:1007E00008F4777F511708F47D7F882349F0541768
:1007F00008F46E7F501708F46D7F5F1508F46B7F67
:100800007BBB68BB1F910F91FF9008954424662421
:1008100085DF08955524539408957724739408959B
:100820008AE0582E08959AE0792E089524E0522EF9
:10083000089534E0732E089545E0542E089555E050
:10084000752E089568E0562E089578E0772E089565
:10085000E6E05E2E0895F6E07F2E0895A2E05A2E7F
:100860000895B2E07B2E089583E0582E089593E01A
:10087000792E089529E0522E089539E0732E0895B7
:1008800047E0542E089557E0752E08958AE0282EEB
:100890000895AF92BF92CF92DF92EF92FF920F93A3
:1008A0001F93DF93CF9300D0CDB7DEB7822DC090DA
:1008B000DE006091DC0069830091FE00D090FF00B3
:1008C0001091DF00E090E000F090E100893709F43A
:1008D00042C18A3740F5883209F49BC0893280F4DE
:1008E000843109F465C0853120F48A3009F0FCC1F7
:1008F00042C08E3109F46DC08F3109F0F5C179C065
:10090000843609F4A8C0853638F4823309F484C0EB
:10091000833309F0E9C193C0883609F4AAC0883747
:1009200009F0E2C102C1873909F4ACC1883980F409
:10093000833809F426C1843820F4823809F0D4C100
:100940001CC18C3809F4B2C1863909F0CDC18DC102
:100950008A3C09F478C18B3C38F4883C09F455C1D1
:10096000893C09F0C1C15FC18E3F09F4ACC18F3F22
:1009700009F0BAC1B2C150DD882309F4B5C1CC99E0
:1009800008C0CC9BFECF90DC80E055DD8EEF05E00B
:10099000D0C1ECDC4ADD83DD53DDC82E882309F4A9
:1009A000A5C181E08093DA0082E3CC24C394C1C165
:1009B000442443946A8364DF6624639464DF6A8119
:1009C000002311F084E101C08EE1662309F0A6C185
:1009D000B0C181E08093DA006A8362DB442480E066
:1009E0002ADD5DDD78DD6A81662309F482C18EE14E
:1009F00081C1DD2011F08FE101C088E2998193FF70
:100A000098C1862F867009F079C18C2DAED1C82E81
:100A100020C0FCDEB2DC82C1CC2009F47FC18C2D69
:100A20000ADD44244394EC2DF0E0E655FF4F50805E
:100A30008091DE003FDE33DD83E306E07AC10130E2
:100A400011F48824839463FF5BC18C2D8ED1C82E52
:100A5000882482E36EC11092DA008824A2E04A2E34
:100A6000F1DEF2E06F2EF1DE36DD10E088E60AE01E
:100A700060C1002339F0898182FD44C1112309F44A
:100A800057C140C15E010894A11CB11C898183FF3C
:100A900011C01B3041F01F5F153041F4809171008F
:100AA000882319F003C011E001C019E0F50180812D
:100AB00082FD02E01123F1F0A9DEE2E04E2E72E0A9
:100AC000672E812F8150843010F4F82EEE24812F70
:100AD0008550843018F4F82EEE24E394212F30E072
:100AE00021503040F901E255FF4F508027543F4FCD
:100AF000F9017080F501808182FD04C1193009F48B
:100B000003C11A3009F412C11B3009F40DC1FF20D2
:100B100009F400C1FF2DF13009F4F8C0F23009F4F6
:100B2000F5C0F33009F0EEC0F1C044246624EE2095
:100B300019F44424439402C066246394E09177003E
:100B4000F0E0EC53FF4F5080E0917800F0E0EC5380
:100B5000FF4F7080DDC0898183FFDAC0898181FD0C
:100B600097C0EE2DF0E0E958FF4F80818F5F8083C2
:100B7000853008F4CFC01082CDC08F2D9BDD8FDC77
:100B800042C04424439466246394B090F500A0903E
:100B9000F700EE2081F48B2D883F10F074DE1AC030
:100BA000EB2DE53610F045DE15C0BB2011F059DE07
:100BB00011C033DE0FC0FA2DF83F10F061DE0AC01D
:100BC0008A2D853610F032DE05C0AA2011F046DEEF
:100BD00001C020DE898183FF16C0898181FF02C0A8
:100BE0000BDD9CC0EE2041F48B2D887F885F8093C5
:100BF000F5008F2D32DD07C08A2D887F885F8093B6
:100C0000F7008F2D42DD83E894C0442443942CDE0A
:100C1000662463942CDE83E04DDD41DC89EC0AE040
:100C200063E0C62E86C0002309F076C0898182FF6A
:100C300075C0ECDD73DD3DDB4424439421DE662486
:100C4000639421DE6DC063FF09C0EC2DE33011F029
:100C5000C39402C0CC24C3948C2D2CDD002309F056
:100C60005FC03EDB8AEC06E964C0442443946624FA
:100C70006394E0917200F0E0EC53FF4F8081582EB6
:100C8000782E50C0898183FF4DC0898181FF03C0C8
:100C9000B3DC05DC43C0809172008F5F80937200EB
:100CA000843008F441C0109272003EC0898183FFF5
:100CB0003DC0898181FF3AC0A9DDCC9BFECFA9DC74
:100CC000FCD9B6DB35C052E0452EBCDD42E0642ED7
:100CD000D4DD002369F18EEF2CC0FDDB32E0432E22
:100CE00099DD22E0622E99DD8FEF23C084E102E0DE
:100CF00020C08FE195E0D92ECC241BC084E619C01A
:100D000083E317C088E615C088EC13C082E811C0E1
:100D100089E70FC088E70DC089EC0BC08EE109C0E0
:100D20008AEC07C087E905C086E903C08CE801C0EA
:100D30008AE01092DC000093FE00D092FF00C09287
:100D4000DE001093DF00E092E000F092E100282E38
:100D50000F900F90CF91DF911F910F91FF90EF9027
:100D6000DF90CF90BF90AF900895DF93CF930F9215
:100D7000CDB7DEB769838430F8F4880F880F998186
:100D800093FF03C0998190FF8F5FE82FF0E0E75356
:100D9000FF4F8081813089F490917900992369F423
:100DA00090917B00992321F090917100992329F46F
:100DB00081E06981DADF01C080E00F90CF91DF919F
:100DC000089510BE89E083BF8FEF86BF89B7816029
:100DD00089BF1092FC001092FD001092FE0010924C
:100DE000FF001092000181E49CE09093FA00809350
:100DF000F9008CE08093E20008951F920F920FB6E5
:100E00000F9211242F933F938F939F93EF93FF9310
:100E10002091FB003091E2008091F9009091FA005E
:100E200001979093FA008093F9008091F9009091D6
:100E3000FA00009779F538602F5F2A3029F5346081
:100E40008091FE00882331F08091FE008150E9EF0F
:100E5000F0E085838091FC008F5F8093FC0080919F
:100E6000FC008C3381F48091FF00882329F080916D
:100E7000FF0081508093FF008091FD008F5F809381
:100E8000FD001092FC0020E081E49CE09093FA00C9
:100E90008093F900809100018F5F8093000120937F
:100EA000FB003093E200FF91EF919F918F913F9172
:100EB0002F910F900FBE0F901F901895552700246B
:100EC00080FF02C0060E571F660F771F6115710560
:100ED00021F096958795009799F7952F802D089585
:100EE000AA1BBB1B51E107C0AA1FBB1FA617B70750
:100EF00010F0A61BB70B881F991F5A95A9F780956C
:100F00009095BC01CD010895DC01CB01FC01E19974
:100F1000FECF06C0FFBBEEBBE09A31960DB20D923C
:100F200041505040B8F70895E199FECF9FBB8EBB6A
:100F3000E09A99278DB30895A8E1B0E042E050E02F
:100F4000E5CFDC01CB0102C02D9105D041505040CE
:100F5000D8F70895262FE199FECF1CBA9FBB8EBB10
:100F60002DBB0FB6F894E29AE19A0FBE0196089550
:0A0F7000F1DF272FF0CFF894FFCF38
:100F7A00FFFFFFFFFFFFFFFFFFFFFFFFFFFFFFFF77
:100F8A000A010201020304020250D250D278D27836
:100F9A00D2FFD2FFD280000080000064640080800B
:100FAA00140080000A800A1E288080808000008049
:100FBA00800A148014140000000A0B0905060109AE
:100FCA0005060B0B0B0B0704020B0B0B0B01090598
:100FDA0006070402010407080201000100020002D8
:0A0FEA0000030103000201020000F1
:00000001FF
