:1000000010C02AC029C028C027C026C025C024C0CF
:1000100023C022C021C070C01FC01EC01DC01CC094
:100020001BC011241FBECFE5D1E0DEBFCDBF10E065
:10003000A0E6B0E0E2E8FEE003C0C89531960D927C
:10004000AC38B107D1F710E0ACE8B0E001C01D92C8
:10005000A83AB107E1F70CC0D3CF089508952FD681
:100060002FD074D16BD212D1B6D0EED1789408953E
:10007000CFE5D1E0DEBFCDBFF2DF80E090E00197B9
:10008000F1F721D180918C0081FF04C080918C0018
:100090008D7F13C080918C0082FF05C001D28091BA
:1000A0008C008B7F0AC080918C0083FFEACF5AD1ED
:1000B00048D22CD680918C00877F80938C00E1CF32
:1000C00010BE89E083BF89B7816089BF10929E000E
:1000D00010929F001092A0001092A1001092A20016
:1000E0001092A30081E49CE090939C0080939B007D
:1000F0008EE080938C0008951F920F920FB60F929E
:1001000011242F933F938F939F9320919D003091C3
:100110008C0080919B0090919C00019790939C0093
:1001200080939B0080919B0090919C00892B09F00B
:1001300040C038602F5F2A30B1F534608091A10053
:10014000882329F08091A10081508093A1008091A3
:100150009E008F5F80939E0080919E008C3311F5EE
:1001600032608091A200882329F08091A200815002
:100170008093A20080919F008F5F80939F00809169
:100180009F008C3369F48091A0008F5F8093A00062
:100190008091A000883111F41092A00010929F006D
:1001A00010929E0020E081E49CE090939C0080935C
:1001B0009B008091A3008F5F8093A30020939D00FC
:1001C00030938C009F918F913F912F910F900FBE94
:1001D0000F901F90189587E886B917B8D098D898CF
:1001E0000895CF93DF93CDB7DEB728970FB6F89475
:1001F000DEBF0FBECDBF8D819E8198878F838B819F
:100200009C819E838D8389819A819C838B83369A7E
:10021000349BFECF84B195B19A838983482F592F9F
:1002200063E0FD2FEC2F31962191319182179307D6
:1002300010F4932F822F2417350710F4532F422FD9
:10024000615067FFF1CF4F5F5F4F4817590798F232
:1002500028960FB6F894DEBF0FBECDBFDF91CF91C9
:100260000895BFDF20E030E048E0369A349BFECFAF
:1002700084B195B1280F391F4150B9F7932F822FC0
:1002800023E0969587952A95E1F7089587B38760CF
:1002900087BB8AB38E608ABB88B3876088BB8BB309
:1002A0008E608BBB10929800109295001092960071
:1002B000109297001092A7001092A4001092A5002F
:1002C0001092A6000895409198006091A700309187
:1002D000A30098B32BB350E080919D00853008F4C3
:1002E00051E080E0413019F0423011F4511181E0C9
:1002F00040E0613019F0623011F4511141E0976033
:100300002E60882379F080919500381708F49D7F3E
:1003100080919600381708F49E7F809197003817D7
:1003200008F49B7F442379F08091A400381708F4E7
:10033000277F8091A500381708F42D7F8091A600B3
:10034000381708F42B7F98BB2BBB0895D798D49807
:10035000DF9ADC9A8AE08093600010928D00109200
:100360008E0008953091600040918D0020918E00A4
:10037000832F99278C30910529F18D30910534F424
:100380008A30910561F00B9799F042C08E3091054B
:1003900069F18E30910504F10F9799F139C0CF9929
:1003A00002C025E03BE0CC9933C025E03DE030C001
:1003B000CF9906C0CC9B3FE0215051F53CE028C0CE
:1003C00045E025C0CF9906C0CC9B3FE0215001F508
:1003D000426013C044E01BC0CC9906C0CF9B3FE0F5
:1003E0002150B1F43EE014C040E511C0CC9907C0E3
:1003F000CF9B3FE0215061F4406225E009C040E41A
:1004000006C040E0CF9B04C0CC9B02C040E83AE06D
:1004100040938D0020938E0030936000089520E07B
:1004200030E0A1E0B0E005D5802D8D3D11F421E054
:1004300030E0932F822F0895C7D372D30AD0089546
:10044000CBD367D30ED008951092920010929100F2
:100450000895E1E6F0E0A2E0B0E08CE0182EF1D4DF
:100460000895E1E6F0E0A2E0B0E08CE0182E04D5BB
:100470000895482F592F60E020E030E0E1E6F0E0F9
:10048000819191914817590718F4932F822F08955D
:100490006F5F2F5F3F4F663098F386E090E00895DE
:1004A00080919200882309F448C01092910081E065
:1004B000D8DE9093900080938F00DBDF91E09093E3
:1004C000A700863041F482E88093A40080EA8093FC
:1004D000A50086E909C0853051F484E68093A40024
:1004E0008FEF8093A50084E18093A6000895843067
:1004F00021F41092A4008FEF05C0833041F48FEFF8
:100500008093A4008093A5001092A60008958230E5
:10051000B1F3813031F48FEF8093A4001092A500E5
:10052000F3CF82E08093A7008FEF8093A400109216
:10053000A5001092A6009093910008958AE0282EBD
:100540000895EF92FF920F931F93CF93DF93CDB750
:10055000DEB723970FB6F894DEBF0FBECDBFF09085
:10056000930060918D006983209199002B833091D5
:100570009A003A830091A100E090A200122D822DF2
:1005800099278837910509F43EC189379105B4F55B
:100590008832910509F4BEC089329105BCF48531D9
:1005A000910509F492C08631910544F48A30910591
:1005B00009F45DC0449709F471C08EC28E31910573
:1005C00009F48EC04F9709F49AC086C2833391050F
:1005D00009F4F0C08433910544F48932910509F49B
:1005E000A1C0C29709F4A2C077C28436910509F46C
:1005F000ECC08536910509F402C16EC28C389105B4
:1006000009F4E7C18D389105CCF48338910509F4DC
:10061000B3C1843891054CF48937910509F41BC1A5
:100620008238910509F446C157C28438910509F40E
:100630005AC18538910509F442C14EC28A3C9105E0
:1006400009F41BC28B3C91054CF4883C910509F4DC
:10065000E6C1893C910509F400C23EC28E3F910576
:1006600009F410C28F3F910509F421C235C2D7DECB
:10067000882309F431C2CF9B02C0CC990BC0CF9B19
:10068000B3D2CC9BCAD2CF9902C0CC9BDED2D8DEEB
:100690001EEF23C2C6D3D0DE14E11FC231E0309377
:1006A000980022E82093950090EA9093960086E9BE
:1006B000809397003093A7002093A4009093A50007
:1006C0008093A60002E015E108C2002309F41EE1B0
:1006D000662309F402C2898187FF2AC014E6FDC19E
:1006E00081E080939200DCDE10929800F0909800F8
:1006F000FAD2FB82FA8295E0E92E1FE1EEC1EE20EC
:1007000009F418E2898182FD03C0898186FFE5C171
:10071000698156C0109298001092A7001092920022
:1007200019E2DBC1662309F4D8C102C0FF2011F42D
:100730001EE1D3C181E0809398008F2D99278230EC
:100740009105A1F0833091051CF4019739F025C083
:100750008330910591F00497B9F01FC080E8809331
:1007600095008EE1809396008CE315C08FEF809307
:1007700095008093960084E10EC084E180939500FB
:10078000809396008FEF07C082E88093950080EAFF
:100790008093960086E9809397004C2F5D2F4E5FE3
:1007A0005F4F6C2F7D2F6D5F7F4F8F2D66D297D25D
:1007B00013E393C1898182FD03C0898186FF8DC1C6
:1007C0008F2DD0D1F82E12E388C11092920091E0C3
:1007D0009093980010929500109296008FEF80935E
:1007E00097009093A7001092A4001092A500809308
:1007F000A60075D21B821A8202E015E66EC10023A4
:1008000009F06BC155C090918100992341F010927D
:1008100095008FEF809396001092970007C08FEF9E
:10082000809395009093960090939700909182000A
:10083000992341F01092A4008FEF8093A5001092AD
:10084000A60007C08FEF8093A4009093A50090931B
:10085000A60019E742C1662309F43FC1898187FFD9
:1008600010C010929500109296008FEF8093970021
:100870001092A4001092A5008093A60002E012E856
:100880002CC1898182FF08C090E08091810088237B
:1008900009F491E090938100898186FF08C090E07F
:1008A00080918200882309F491E09093820094D192
:1008B00018E713C1002309F010C1F02E71C0002306
:1008C00009F00BC1F39484E0F81611F41CE805C19B
:1008D0004C2F5D2F4E5F5F4F6C2F7D2F6D5F7F4FD5
:1008E0008F2DCBD174C0283F50F082E880939500C3
:1008F00080EA8093960086E98093970017C025369A
:1009000020F0109295008FEF05C0222341F08FEF69
:1009100080939500809396001092970007C08FEF08
:100920008093950020939600209397009A81983F9A
:1009300050F082E88093A40080EA8093A50086E9C5
:100940008093A60017C0953620F01092A4008FEF78
:1009500005C0992341F08FEF8093A4008093A500F8
:100960001092A60007C08FEF8093A4009093A5007B
:100970009093A60013E8B1C0662309F4AEC0898144
:1009800087FF10C010929500109296008FEF809311
:1009900097001092A4001092A5008093A60001E099
:1009A00015E89BC0922F987F9B83232F287F2A8353
:1009B000898182FF02C0985F9B83898186FF02C084
:1009C000285F2A834A816B818F2D70D105D114E86D
:1009D00084C0898187FF10C0109295001092960004
:1009E0008FEF809397001092A4001092A50080933F
:1009F000A60001E018EC71C01B821A8292E090936D
:100A0000980010929500109296008FEF80939700B7
:100A10009093A7001092A4001092A50045C0002357
:100A200009F05BC092E09093980082E88093950073
:100A300080EA8093960086E9809397009093A700C0
:100A40001FEF1093A4001093A5000093A60078D187
:100A50001B831A8304E119EC40C00023F1F582E006
:100A60008093A70082E88093A40080EA8093A50089
:100A700086E98093A6001AEC30C0002371F576D188
:100A800006E92BC032E03093980020E820939500CF
:100A90009EE1909396008CE3809397003093A7009B
:100AA0002093A4009093A5008093A60016C01B82FB
:100AB0001A8292E0909398008FEF809395001092A5
:100AC0009600109297009093A7008093A400109234
:100AD000A5001092A60001C01FEF10928D00009398
:100AE000A100E092A2008B81809399008A8180937B
:100AF0009A00F0929300212E23960FB6F894DEBF51
:100B00000FBECDBFDF91CF911F910F91FF90EF905E
:100B10000895A6E3B0E080919400082E9CD108953A
:100B2000A6E3B0E086D1802D99278093940082308F
:100B300018F010929400EDDF80919400882341F426
:100B4000EDE6F0E0A2E2B0E084E1182E7AD108955B
:100B5000813039F4EDE6F0E0A2E2B0E084E1182E55
:100B600070D10895CF93DF93CDB7DEB721970FB63D
:100B7000F894DEBF0FBECDBF6983E82FEE0FEE0FF6
:100B8000853018F080E090E016C0898182FF05C0B2
:100B9000898180FD0BC0EF5F09C0898186FF06C097
:100BA000898184FF02C0EE5F01C0ED5FFF27E3593A
:100BB000FF4F8081992721960FB6F894DEBF0FBEB4
:100BC000CDBFDF91CF910895E1E8F0E0A7E3B0E079
:100BD0008AE0182E36D10895E1E8F0E0A7E3B0E00E
:100BE0008AE0182E49D1089581E080938100809396
:100BF000820080E5809383008093840088E780935F
:100C00008500809386008FEF809387008093880013
:100C10001092890010928A00089581E080938100EB
:100C200010928200109283009FEF9093840088E7D7
:100C30008093850010928600909387001092880020
:100C40001092890010928A00089581E080938100BB
:100C50008093820080E580938300109284008FEF60
:100C60008093850010928600109287008093880000
:100C70001092890010928A000895CF93DF93B72FC6
:100C8000A62FD52FC42F853070F4882311F48C93B0
:100C900009C0E82FFF27EE0FFF1FEF57FF4F80819E
:100CA0008C9381818883DF91CF910895E82FFF276E
:100CB000EE0FFF1FEF57FF4F60834183089581E0E0
:100CC0008FBD8BE08EBD8AB380668ABB1BBC1ABC0D
:100CD00019BC18BC1092990010929A0008958FB513
:100CE000806A8FBD08958FB58F758FBD0895F92FD8
:100CF000E82F8081613F08F06FEF843120F4861780
:100D000010F48E5F01C0862F80830895CF93609189
:100D10009900C0919A0080918100882321F08AE493
:100D200090E0E5DF01C06ABD80918200882329F050
:100D30006C2F88E490E0DBDF01C0C8BDCF9108953F
:100D400088EEA1E4B0E0082E86D04FEF5FEF2CE3F1
:100D500080E090E0B92FA82FAE5BBF4F042E152E78
:100D600086D02150029627FFF5CF0895CF93CFB7B5
:100D7000F89481E076DA4CE362E470E028E730E052
:100D8000B32FA22FA05CBF4F61D0B32FA22FAE5BB9
:100D9000BF4F0E2E1F2E6BD04150225030404423A7
:100DA00079F7B72FA62F082E192E61D0CFBF7894D0
:100DB000CF9108951F931FB7F894AAE4B0E046D0EE
:100DC000F0936200E0936100AAE5B0E03FD0F093B9
:100DD0006400E0936300A2E7B0E038D0F0936600CF
:100DE000E0936500AAE8B0E031D0F0936800E093AA
:100DF0006700A2EAB0E02AD0F0936A00E0936900AD
:100E0000AAEBB0E023D0F0936C00E0936B0029DBF9
:100E1000A1E4B0E080E0082E1ED01FBF78941F919F
:100E20000895A1E4B0E005D0802D883E09F4C2DF2A
:100E30000895E199FECFBFBBAEBBE09A11960DB20B
:100E40000895F7DF01921A94E1F70895F2DFE02D9B
:100E5000F0DFF02D0895E199FECFBFBBAEBB0DBA18
:100E600011960FB6F894E29AE19A0FBE0895F3DF57
:100E7000012CF1DF112408950190EDDF1A94E1F7C0
:020E80000895D3
:100E82000A74028D029B02A202AF02C40201030095
:100E9200000203000003030100020302000000003D
:0C0EA20000010100FF7800FF00000000CC
:00000001FF
