:1000000010C02BC03FC029C028C027C026C025C0B3
:1000100024C023C022C088C020C01FC01EC01DC075
:100020001CC011241FBECFE5D1E0DEBFCDBF10E064
:10003000A0E6B0E0E6E4FFE003C0C89531960D927B
:10004000A43DB107D1F710E0A4EDB0E001C01D92CE
:10005000AB3FB107E1F72FD075C7D2CF80E882BBA5
:100060008BB780618BBF85B7877E806185BF85B781
:10007000806285BF85B7806285BF889585B78F7D93
:1000800085BF08951F920F920FB60F9211248F9380
:1000900085B78F7D85BF8F910F900FBE0F901F90FA
:1000A0001895DCD5FAD524D0ADD1C4D2DED098D005
:1000B00057D27894089580E090E00197F1F7F1DF4E
:1000C000E5D08091D40082FF06C093D067D28091A2
:1000D000D4008B7F0AC08091D40083FFF1CF9ED1E2
:1000E000ACD235D68091D400877F8093D400E8CFFE
:1000F00010BE89E083BF8FEF86BF89B7816089BF5B
:100100001092F4001092F5001092F6001092F70091
:100110001092F80081E49CE09093F2008093F1004B
:100120008CE08093D40008951F920F920FB60F9227
:1001300011242F933F938F939F932091F30030913D
:10014000D4008091F1009091F20001979093F20019
:100150008093F1008091F1009091F200892B71F56C
:1001600038602F5F2A3021F534608091F6008823B3
:1001700029F08091F60081508093F6008091F40080
:100180008F5F8093F4008091F4008C3381F4809130
:10019000F700882329F08091F70081508093F700C1
:1001A0008091F5008F5F8093F5001092F40020E0BD
:1001B00081E49CE09093F2008093F1008091F8003C
:1001C0008F5F8093F8002093F3003093D4009F91C9
:1001D0008F913F912F910F900FBE0F901F90189508
:1001E00087E886B913B817B8D098D89881E081B954
:1001F0000895F89440E020E030E0369A369BFECF38
:1002000084B195B1280F391F4F5F4830B1F7809105
:10021000D5008F5F8093D500893011F41092D500FE
:10022000E091D500FF27EE0FFF1FE05AFF4F93E04C
:10023000369527959A95E1F73183208320E030E0C9
:10024000E0E6F0E081919191280F391F80E0E037DE
:10025000F807C1F783E0369527958A95E1F7309343
:10026000FA002093F9007894089587B3876087BBDC
:100270008AB38E608ABB88B3876088BB8BB38E607D
:100280008BBB44246624552477240895DF92EF9293
:10029000FF920F931F93852D992763E070E002D69C
:1002A000F92FE82FE059FF4FB0811181F280872D9F
:1002B000992763E070E0F6D5F92FE82FE059FF4F5A
:1002C0000081E180D280582D772009F450E04091E0
:1002D000F800469538B3ABB38091F30020E082304C
:1002E00008F021E0842D813019F4E1E0F0E00DC048
:1002F000823019F0E0E0F0E008C080E090E02223D6
:1003000011F081E090E0F92FE82F862D813019F46B
:1003100061E070E00DC0823019F060E070E008C06C
:1003200080E090E0222311F081E090E0682F792FA7
:10033000232F27603A2F3E60552331F0842F9927D1
:1003400087709070892BB1F4EE2349F04B1708F4B5
:100350002D7F411708F42B7F4F1508F42E7F66235D
:1003600049F0401708F4377F4E1508F43B7F4D15D0
:1003700008F43D7F28BB3BBB1F910F91FF90EF908E
:10038000DF9008954424662481DF089581E0582E8B
:10039000089591E0792E089522E0522E089532E0DA
:1003A000732E089545E0542E089555E0752E089556
:1003B00066E0562E089576E0772E0895E9E05E2EE9
:1003C0000895F9E07F2E0895A7E05A2E0895B7E02A
:1003D0007B2E089583E0582E089593E0792E08959A
:1003E00024E0522E089534E0732E08954AE0542EEE
:1003F00008955AE0752E089568E0562E089578E025
:10040000772E0895D798DF9AD498DC9A8AE0809363
:1004100094001092D6001092D7000895CF93DF93E6
:10042000CDB7DEB721970FB6F894DEBF0FBECDBFB4
:10043000209194008091D6009091D700CF9902C06E
:10044000846001C08B7F89838981CC9902C08064DC
:1004500001C08F7B89832D3069F12E3040F42B3021
:10046000C1F02C30D8F42A3009F04CC008C0263135
:1004700079F12731C1F1253109F044C024C08981C7
:1004800082FF02C02BE098E0898186FF3BC025E116
:100490000DC0898182FD11C089E02DC0898182FF54
:1004A00007C0915079F58EE089832DE098E02AC04D
:1004B0008AE021C0898182FF03C0915009F122C0E6
:1004C00089818B7F18C0898186FD10C080E913C0A7
:1004D000898186FF06C09150A9F480EE898327E1C7
:1004E000E5CF80EA08C0898186FF03C0915031F0D2
:1004F00009C089818F7B89832AE004C026E101C07D
:100500002CE092E089818093D6009093D7002093CD
:10051000940021960FB6F894DEBF0FBECDBFDF91D9
:10052000CF910895A1E0B0E0082EF6D40895A1E09F
:10053000B0E0E0D4802D9927089580D36BD0089542
:1005400085D370D00895A0E0B0E0D4D4802D20E011
:1005500030E08D3D11F421E030E0932F822F08959B
:100560001092D80008954091F9005091FA0080E06F
:1005700090E0EDEDF0E0282F392F80819181481730
:10058000590748F0932F822F0196329688309105B3
:1005900091F728E030E0932F822F08958091D800C2
:1005A000882341F0E0DF91E0692E782E882311F452
:1005B00082E0682E08958FE992E09093DE008093A8
:1005C000DD008AEA92E09093E0008093DF0083EB05
:1005D00092E09093E2008093E10082EC92E09093AD
:1005E000E4008093E30087ED92E09093E60080932F
:1005F000E50088EF92E09093E8008093E7008FEFAA
:100600009FEF9093EA008093E9009093EC00809331
:10061000EB00089580E1EDEDF0E0A3E0B0E0182EEE
:100620008CD4089580E1EDEDF0E0A3E0B0E0182E69
:1006300069D408958AE0282E0895AF92BF92CF9290
:10064000DF92EF92FF920F931F93CF93DF93CDB77B
:10065000DEB721970FB6F894DEBF0FBECDBF822D57
:10066000F090D9006091D6006983D090F600A090F8
:10067000F700E090DA00B090DB00C090DC00009161
:10068000ED001091EF00883709F44AC1893728F549
:10069000883209F4A9C0893280F4843109F469C030
:1006A000853120F48A3009F0F6C144C08E3109F456
:1006B00070C08F3109F0EFC181C0833309F4AAC043
:1006C000843320F4823309F0E6C191C0843609F402
:1006D000B0C0883609F0DFC1BBC0883C09F48BC1CB
:1006E000893C80F4823809F448C1833820F4893782
:1006F00009F0D1C12BC1833809F443C18C3809F00A
:10070000CAC1A9C18B3C81F08C3C38F4893C09F406
:1007100080C18A3C09F0BFC18DC18E3F09F4A9C1D7
:100720008F3F09F0B8C1AFC1662309F4BCC19091F5
:100730009500C5C108DF882309F4B1C1CF9908C06D
:10074000CF9BFECF4DD380E0EDDEF5E0DF2E99C1EB
:100750006CD3F6DEAED2EBDEF82E882321F4E2E095
:10076000DE2E94E19DC181E08093D80071E0F72EE8
:1007700039C061E0462E40DE51E0652E40DEDD20CE
:1007800011F49EE101C094E18981882309F093C1AD
:1007900087C181E08093D80001DF442480E0C2DE7D
:1007A00088D29ED28981882329F4FF244AE0A42E8E
:1007B0009FE176C1FF243AE0A32E7DC1AA2011F467
:1007C00098E201C09FE1262F3327822F887809F411
:1007D00067C126703070232B11F094E661C18F2D14
:1007E0008CD1F82E92E35CC1CDDD38DC64C1FF20F2
:1007F00009F461C18F2D96DE21E0422EEF2DFF27F7
:10080000EA56FF4F50808091D900F7D152D296E03E
:10081000D92E08C081E0D81611F481E0882E862FE9
:10082000887811F493E33CC18F2D67D1F82E88248A
:10083000D9CF1092D800882402E0402EBFDD12E00C
:10084000612EBFDD4DD2BAE0DB2E98E6EE2428C142
:10085000DD2039F0898182FD2AC1EE2009F027C10F
:1008600006C10C2F1D2F0F5F1F4F898183FF17C0FB
:10087000E3949BE0E91619F4A1E0EA2E09C0E5E053
:10088000EE1631F48091D300882311F4F9E0EF2EB5
:10089000F12FE02F808182FF02C0E2E0DE2EEE2009
:1008A00009F170DD72E0472E62E0662E8E2D8150D8
:1008B000843010F4BB2401C08C2D5BEFC52ECE0C10
:1008C000F3E0FC1518F041E0B42E01C0C82EEE2D67
:1008D000FF273197AE2FBF2FA656BF4F5C90EB5529
:1008E000FF4F7080F12FE02F808182FDE0C0F9E0A2
:1008F000EF1611F498ECD4C08AE0E81609F4D9C0D8
:10090000CC2009F4D2C091E0C91609F4D6C0E2E0C7
:10091000CE1609F4D2C0F3E0CF1609F0C8C0CDC09E
:1009200044246624BB2019F431E0432E02C021E0A8
:10093000622EE091C500FF27E055FF4F5080E09107
:10094000C600FF27E055FF4F708003C0898183FDFB
:1009500002C099E7A5C0898181FF03C06FD1A9D1E9
:10096000AAC0EB2DFF27EB53FF4F80818F5F808361
:10097000853008F49AC0108298C08C2D3ED199D150
:1009800038C091E0492E81E0682EBB2071F4083F09
:1009900010F035DD17C0053610F007DD13C0002359
:1009A00011F01BDD0FC0F5DC0DC0183F10F024DD89
:1009B00009C0153610F0F6DC05C0112311F00ADD70
:1009C00001C0E4DC898183FF14C0898181FF02C0FA
:1009D00035D171C0BB2039F4087F085F0093ED006A
:1009E0008C2DE0D006C0187F185F1093EF008C2D7F
:1009F000EFD093E855C011E0412EF2DCB1E06B2E50
:100A0000F2DC83E0FAD055D1A3E0FA2EFAE0DF2E33
:100A100002C0DD2011F099EC43C0898182FF4BC0F8
:100A2000B1DC34DC0AD2E1E04E2EE6DC71E0672E68
:100A3000E6DC0FC063FF08C0F39484E0F81611F4FD
:100A400061E0F62E8F2DD9D0DD2019F40AD256E9B7
:100A5000D52E9AEC25C0898183FF2BC0898181FF27
:100A600028C090DCCF9BFECF7BD0A5DD66DD9AE071
:100A700017C042E0442EA2DC32E0632E8ADCDD2087
:100A8000D1F09EEF0DC02CD122E0422E7FDC92E00F
:100A9000692E7FDC04C08B3C11F49FEF10C09FEFE8
:100AA0001092D6000CC09BEC0AC098E7F9CF98E6EC
:100AB000F7CF9CE8F5CF9EE1F3CF92E8F1CFD0924B
:100AC000F600A092F700F092D900E092DA00B0921E
:100AD000DB00C092DC00292E21960FB6F894DEBF11
:100AE0000FBECDBFDF91CF911F910F91FF90EF907F
:100AF000DF90CF90BF90AF900895CF93DF93CDB7A5
:100B0000DEB721970FB6F894DEBF0FBECDBF698365
:100B1000843018F080E090E01AC0E82FEE0FEE0F5E
:100B2000AC2FBD2F1196898183FF03C0898180FF7F
:100B3000EF5F8C9187FF06C08C9184FF02C0EE5F4F
:100B400001C0ED5FFF27EB54FF4F8081992721966D
:100B50000FB6F894DEBF0FBECDBFDF91CF910895E1
:100B600082E08093C5008093C60090E59093C70013
:100B700082ED8093C8009093C9008093CA0098E7E3
:100B80009093CB008093CC009093CD008093CE00C7
:100B90009FEF9093CF008093D0009093D1008093EB
:100BA000D20008952091F9003091FA0036952795EA
:100BB00036952795E82FFF27EE0FFF1FEE0FFF1F3B
:100BC000EB53FF4F32978091ED008193208308957E
:100BD0002091F9003091FA003695279536952795A2
:100BE000E82FFF27EE0FFF1FEE0FFF1FEB53FF4F06
:100BF0008091EF008083218308958530F0F488236D
:100C000029F41092ED001092EF000895E82FFF27CD
:100C1000EE0FFF1FEE0FFF1FEB53FF4F3297808148
:100C200032968093ED00829131968093EE00808120
:100C30008093EF0081818093F00008958EE0E5ECD1
:100C4000F0E0A3E1B0E0182E78D108958EE0E5EC55
:100C5000F0E0A3E1B0E0182E55D10895D598DD9AC3
:100C600087E886B980E183B985E087B985E28A950E
:100C7000F1F7369A349BFECF369A349BFECF85B17E
:100C80001092D3008353833618F481E08093D3000D
:100C900016B813B81ABA1BBA08958AB380668ABB0D
:100CA0001BBC1ABC19BC18BC1092ED001092EF00CE
:100CB00008952091C6008091C500843011F490EC15
:100CC00001C090E88091D300882329F0243011F4EA
:100CD000906301C0906291609FBD83E08EBD0895D6
:100CE0001092ED001092EF001ABC18BC0895F92F75
:100CF000E82F8081681720F08F3110F4682F6F5F24
:100D000060830895282F462F8091F9009091FA0072
:100D10009695879596958795382F8823A9F0222355
:100D200099F0622F7727842F9927BCD0632F7727DC
:100D30000196CAD06F3F710521F018F08FEF90E057
:100D40000895862F9927089580E090E00895FF92F6
:100D50000F931F93F8948091ED000091EF00609144
:100D6000EE00F090F0009091C5001091C60088232D
:100D700011F41ABC12C0992329F0943019F0933061
:100D800019F4C0DF8ABD09C0913019F0923029F4FE
:100D9000B9DF682F8AE490E0AADF002311F418BCC1
:100DA0001AC0112311F0143011F408BD14C013300F
:100DB00029F46F2D802FA6DF88BD0DC0113011F4EE
:100DC000602F06C0123039F46F2D802F9BDF682F03
:100DD00088E490E08CDF78941F910F91FF90089544
:100DE00080E0ADEFB0E0082E97D008951F93CF9329
:100DF000DF931FB7F89489E390E0CDEDD0E0B92FF1
:100E0000A82F85D0E993F993489620E0893F92076F
:100E1000B1F700DC80E0ADEFB0E0082E7DD01FBF61
:100E20007894DF91CF911F910895ADEFB0E062D03B
:100E3000802D883E09F4DADF089588EEADEFB0E04A
:100E4000082E6AD081E290E02FEF3FEFB92FA82F54
:100E5000022E132E6DD0029640E08D3F9407B1F71D
:100E600008954FB7F89429EF30E0B32FA22F4FD059
:100E7000B32FA22F12960E2E1F2E5AD02250304082
:100E800080E02F31380789F78091F9009091FA00BE
:100E90002E5F3F4FB32FA22F082E192E49D04FBFE0
:100EA000789408955527002480FF02C0060E571F2E
:100EB000660F771F6115710521F09695879500974C
:100EC00099F7952F802D0895AA1BBB1B51E107C0F0
:100ED000AA1FBB1FA617B70710F0A61BB70B881FCA
:100EE000991F5A95A9F780959095682F792F8A2F89
:100EF0009B2F0895E199FECFBFBBAEBBE09A119640
:100F00000DB20895F7DF01921A94E1F70895F2DF28
:100F1000E02DF0DFF02D0895E199FECFBFBBAEBB11
:100F20000DBA11960FB6F894E29AE19A0FBE0895A1
:100F3000F3DF012CF1DF112408950190EDDF1A9405
:060F4000E1F70895FFCF68
:100F4600FFFFFFFFFFFFFFFFFFFFFFFFFFFFFFFFAB
:100F56008000008000008014146464008080140007
:100F660080000A800A1E2880808080000080800A17
:100F7600140000000A0A0B0A0607010A06070B0BF3
:100F86000B0B0805030B0B0B0B010A0607080503E1
:100F96000105070903010001000200020003010325
:100FA6000002010200020250D250D278D278D2FF5B
:040FB600D2FFD20193
:00000001FF
